:020000040800F2
:1000000000000220294E00087543000883430008C1
:10001000894300088F430008954300080000000052
:100020000000000000000000000000009B430008EA
:10003000A943000800000000B7430008C5430008BA
:10004000794E0008794E0008794E0008794E000874
:10005000794E0008794E0008794E0008794E000864
:10006000794E0008794E0008794E0008794E000854
:10007000794E0008794E0008794E0008794E000844
:10008000794E0008794E0008794E0008794E000834
:10009000794E0008794E0008794E0008794E000824
:1000A000794E0008794E0008794E0008794E000814
:1000B000794E0008D1430008794E0008794E0008B7
:1000C000794E0008794E0008794E0008794E0008F4
:1000D000794E0008794E0008794E0008794E0008E4
:1000E000794E0008794E0008794E0008794E0008D4
:1000F000794E0008794E0008794E0008794E0008C4
:10010000794E0008794E0008794E0008794E0008B3
:10011000794E0008794E0008794E0008794E0008A3
:10012000794E0008794E0008794E0008794E000893
:10013000794E0008794E0008794E0008794E000883
:10014000794E0008794E0008794E0008794E000873
:10015000794E0008794E0008794E0008794E000863
:10016000794E0008794E0008794E0008794E000853
:10017000794E0008794E0008794E00080000000012
:08018000794E0008794E0008D9
:1001900010B5054C237833B9044B13B10448AFF3C1
:1001A00000800123237010BDE80100200000000042
:1001B000EC9D000808B5034B1BB103490348AFF39E
:1001C000008008BD00000000EC010020EC9D00084C
:1001D000034613F8012B002AFBD1181A0138704787
:1001E00001F0FF01102A2BDB10F0070F08D010F8E8
:1001F000013B013A8B422DD010F0070F42B3F6D1EC
:10020000F0B441EA012141EA014122F007047FF004
:1002100000070023F0E80256083C85EA010586EA5B
:10022000010685FA47F5A3FA87F586FA47F6A5FA97
:1002300087F68EB9EED1F0BC01F0FF0102F00702A3
:1002400032B110F8013B013A83EA010313B1F8D14E
:100250000020704701387047002D06BF354603382F
:10026000073815F0010F07D1013015F4807F02BF68
:10027000013015F4C03F0130F0BC0138704700BFB9
:1002800081F0004102E000BF83F0004330B54FEA47
:1002900041044FEA430594EA050F08BF90EA020FB4
:1002A0001FBF54EA000C55EA020C7FEA645C7FEA47
:1002B000655C00F0E2804FEA5454D4EB5555B8BF6A
:1002C0006D420CDD2C4480EA020281EA030382EADB
:1002D000000083EA010180EA020281EA0303362D6D
:1002E00088BF30BD11F0004F4FEA01314FF4801C40
:1002F0004CEA113102D0404261EB410113F0004F52
:100300004FEA03334CEA133302D0524263EB430308
:1003100094EA050F00F0A780A4F10104D5F1200EA6
:100320000DDB02FA0EFC22FA05F2801841F1000101
:1003300003FA0EF2801843FA05F359410EE0A5F1D5
:1003400020050EF1200E012A03FA0EFC28BF4CF006
:10035000020C43FA05F3C01851EBE37101F00045BC
:1003600007D54FF0000EDCF1000C7EEB00006EEBC9
:100370000101B1F5801F1BD3B1F5001F0CD3490853
:100380005FEA30004FEA3C0C04F101044FEA4452AA
:1003900012F5800F80F09A80BCF1004F08BF5FEA31
:1003A000500C50F1000041EB045141EA050130BD11
:1003B0005FEA4C0C404141EB010111F4801FA4F1B4
:1003C0000104E9D191F0000F04BF01460020B1FA09
:1003D00081F308BF2033A3F10B03B3F120020CDA41
:1003E0000C3208DD02F1140CC2F10C0201FA0CF01F
:1003F00021FA02F10CE002F11402D8BFC2F1200C84
:1004000001FA02F120FA0CFCDCBF41EA0C01904039
:10041000E41AA2BF01EB0451294330BD6FEA040482
:100420001F3C1CDA0C340EDC04F11404C4F120026D
:1004300020FA04F001FA02F340EA030021FA04F37F
:1004400045EA030130BDC4F10C04C4F1200220FAD6
:1004500002F001FA04F340EA0300294630BD21FA14
:1004600004F0294630BD94F0000F83F4801306BFDA
:1004700081F480110134013D4EE77FEA645C18BFCE
:100480007FEA655C29D094EA050F08BF90EA020F65
:1004900005D054EA000C04BF1946104630BD91EA5D
:1004A000030F1EBF0021002030BD5FEA545C05D160
:1004B0004000494128BF41F0004130BD14F580049F
:1004C0003CBF01F5801130BD01F0004545F0FE4113
:1004D00041F470014FF0000030BD7FEA645C1ABF48
:1004E000194610467FEA655C1CBF0B46024650EA7F
:1004F000013406BF52EA033591EA030F41F40021AB
:1005000030BD00BF90F0000F04BF0021704730B530
:100510004FF4806404F132044FF000054FF0000105
:1005200050E700BF90F0000F04BF0021704730B5C6
:100530004FF4806404F1320410F0004548BF40429B
:100540004FF000013EE700BF42004FEAE2014FEAF0
:1005500031014FEA02701FBF12F07F4393F07F4FCB
:1005600081F06051704732F07F4208BF704793F0CE
:100570007F4F04BF41F40021704730B54FF46074E1
:1005800001F0004521F000411CE700BF50EA0102E4
:1005900008BF704730B54FF000050AE050EA01028D
:1005A00008BF704730B511F0004502D5404261EBFD
:1005B00041014FF4806404F132045FEA915C3FF43E
:1005C000D8AE4FF003025FEADC0C18BF03325FEADB
:1005D000DC0C18BF033202EBDC02C2F1200300FA8C
:1005E00003FC20FA02F001FA03FE40EA0E0021FAB1
:1005F00002F11444BDE600BF70B54FF0FF0C4CF49F
:10060000E06C1CEA11541DBF1CEA135594EA0C0F50
:1006100095EA0C0F00F0DEF82C4481EA030621EA8B
:100620004C5123EA4C5350EA013518BF52EA0335C6
:1006300041F4801143F4801338D0A0FB02CE4FF078
:100640000005E1FB02E506F00042E0FB03E54FF0A8
:100650000006E1FB03569CF0000F18BF4EF0010EA0
:10066000A4F1FF04B6F5007F64F5407404D25FEA9C
:100670004E0E6D4146EB060642EAC62141EA55514F
:100680004FEAC52040EA5E504FEACE2EB4F1FD0C91
:1006900088BFBCF5E06F1ED8BEF1004F08BF5FEA0F
:1006A000500E50F1000041EB045170BD06F00046C1
:1006B00046EA010140EA020081EA0301B4EB5C046E
:1006C000C2BFD4EB0C0541EA045170BD41F4801166
:1006D0004FF0000E013C00F3AB8014F1360FDEBF8B
:1006E000002001F0004170BDC4F10004203C35DA67
:1006F0000C341BDC04F11404C4F1200500FA05F3EA
:1007000020FA04F001FA05F240EA020001F000428A
:1007100021F0004110EBD37021FA04F642EB060100
:100720005EEA430E08BF20EAD37070BDC4F10C042A
:10073000C4F1200500FA04F320FA05F001FA04F2EE
:1007400040EA020001F0004110EBD37041F10001DA
:100750005EEA430E08BF20EAD37070BDC4F12005E5
:1007600000FA05F24EEA020E20FA04F301FA05F24D
:1007700043EA020321FA04F001F0004121FA04F2F5
:1007800020EA020000EBD3705EEA430E08BF20EAC5
:10079000D37070BD94F0000F0FD101F000464000FF
:1007A00041EB010111F4801F08BF013CF7D041EA81
:1007B000060195F0000F18BF704703F00046520085
:1007C00043EB030313F4801F08BF013DF7D043EA56
:1007D0000603704794EA0C0F0CEA135518BF95EA0C
:1007E0000C0F0CD050EA410618BF52EA4306D1D193
:1007F00081EA030101F000414FF0000070BD50EAB2
:10080000410606BF1046194652EA430619D094EA3B
:100810000C0F02D150EA013613D195EA0C0F05D125
:1008200052EA03361CBF104619460AD181EA030179
:1008300001F0004141F0FE4141F470014FF0000031
:1008400070BD41F0FE4141F4780170BD70B54FF0CC
:10085000FF0C4CF4E06C1CEA11541DBF1CEA13554C
:1008600094EA0C0F95EA0C0F00F0A7F8A4EB05042E
:1008700081EA030E52EA03354FEA013100F0888025
:100880004FEA03334FF0805545EA131343EA1263EE
:100890004FEA022245EA111545EA10654FEA0026A3
:1008A0000EF000419D4208BF964244F1FD0404F55C
:1008B000407402D25B084FEA3202B61A65EB0305B8
:1008C0005B084FEA32024FF480104FF4002CB6EB75
:1008D000020E75EB030E22BFB61A754640EA0C00F5
:1008E0005B084FEA3202B6EB020E75EB030E22BF35
:1008F000B61A754640EA5C005B084FEA3202B6EB76
:10090000020E75EB030E22BFB61A754640EA9C0034
:100910005B084FEA3202B6EB020E75EB030E22BF04
:10092000B61A754640EADC0055EA060E18D04FEAC2
:10093000051545EA16754FEA06164FEAC30343EA62
:1009400052734FEAC2025FEA1C1CC0D111F4801F2F
:100950000BD141EA00014FF000004FF0004CB6E728
:1009600011F4801F04BF01430020B4F1FD0C88BFC7
:10097000BCF5E06F3FF6AFAEB5EB030C04BFB6EBD2
:10098000020C5FEA500C50F1000041EB045170BDC5
:100990000EF0004E4EEA113114EB5C04C2BFD4EBF2
:1009A0000C0541EA045170BD41F480114FF0000E76
:1009B000013C90E645EA060E8DE60CEA135594EAF2
:1009C0000C0F08BF95EA0C0F3FF43BAF94EA0C0FF5
:1009D0000AD150EA01347FF434AF95EA0C0F7FF46A
:1009E00025AF104619462CE795EA0C0F06D152EABE
:1009F00003353FF4FDAE1046194622E750EA4106A2
:100A000018BF52EA43067FF4C5AE50EA41047FF4B2
:100A10000DAF52EA43057FF4EBAE12E74FF0FF3C17
:100A200006E000BF4FF0010C02E000BF4FF0010CE8
:100A30004DF804CD4FEA410C7FEA6C5C4FEA430C61
:100A400018BF7FEA6C5C1BD001B050EA410C0CBFB0
:100A500052EA430C91EA030F02BF90EA020F002012
:100A6000704710F1000F91EA030F58BF994208BF79
:100A700090422CBFD8176FEAE37040F00100704736
:100A80004FEA410C7FEA6C5C02D150EA013C07D18D
:100A90004FEA430C7FEA6C5CD6D152EA033CD3D0D8
:100AA0005DF8040B704700BF8446104662468C46D2
:100AB0001946634600E000BF01B5FFF7B7FF002805
:100AC00048BF10F1000F01BD4DF808EDFFF7F4FF2E
:100AD0000CBF012000205DF808FB00BF4DF808EDB9
:100AE000FFF7EAFF34BF012000205DF808FB00BFDC
:100AF0004DF808EDFFF7E0FF94BF012000205DF8FE
:100B000008FB00BF4DF808EDFFF7CEFF94BF0120B2
:100B100000205DF808FB00BF4DF808EDFFF7C4FFAB
:100B200034BF012000205DF808FB00BF4FEA410CF4
:100B30007FEA6C5C02D150EA013C0AD14FEA430CD7
:100B40007FEA6C5C02D152EA033C02D14FF0000014
:100B500070474FF0010070474FEA410212F5001252
:100B600015D211D56FF47873B3EB625212D94FEAF4
:100B7000C12343F0004343EA505311F0004F23FADE
:100B800002F018BF404270474FF00000704750EA33
:100B9000013005D111F0004008BF6FF000407047F0
:100BA0004FF00000704700BF4A0011D212F500124A
:100BB00011D20DD56FF47873B3EB62520ED44FEAB5
:100BC000C12343F0004343EA505323FA02F0704735
:100BD0004FF00000704750EA013002D14FF0FF3073
:100BE00070474FF0000070474FEA4102B2F1E04316
:100BF00024BFB3F5001CDCF1FE5C0DD901F0004C04
:100C00004FEAC0024CEA5070B2F1004F40EB830053
:100C100008BF20F00100704711F0804F21D113F17F
:100C20003872BCBF01F00040704741F480114FEAB8
:100C30005252C2F11802C2F1200C10FA0CF320FA41
:100C400002F018BF40F001004FEAC1234FEAD3235E
:100C500003FA0CFC40EA0C0023FA02F34FEA4303C8
:100C6000CCE77FEA625307D150EA01331EBF4FF051
:100C7000FE4040F44000704701F0004040F0FE406C
:100C800040F40000704700BF53B94AB9002908BFBB
:100C900000281CBF4FF0FF314FF0FF3000F072B959
:100CA000ADF1080C6DE904CE00F006F8DDF804E0C3
:100CB000DDE9022304B070472DE9F047089E0446A1
:100CC0008846002B4BD18A42154667D9B2FA82F288
:100CD0004AB1C2F1200701FA02F320FA07F7954062
:100CE00047EA030894404FEA154E230CB8FBFEF781
:100CF0001FFA85FC0EFB178843EA084307FB0CF13B
:100D0000994209D9EB1807F1FF3080F01B81994215
:100D100040F21881023F2B445B1AA4B2B3FBFEF0F1
:100D20000EFB103344EA034400FB0CFCA44509D934
:100D30002C1900F1FF3380F00781A44540F20481B3
:100D400002382C4440EA0740A4EB0C0400271EB1F3
:100D5000D4400023C6E900433946BDE8F0878B4202
:100D600009D9002E00F0EB800027C6E900013846C3
:100D70003946BDE8F087B3FA83F7002F47D18B429D
:100D800002D3824200F2FA80841A61EB030301204D
:100D90009846002EE0D0C6E90048DDE702B9FFDE44
:100DA000B2FA82F2002A40F08F80491B4FEA154EBA
:100DB0001FFA85F80127B1FBFEFC230C0EFB1C116A
:100DC00043EA014308FB0CF1994207D9EB180CF1F7
:100DD000FF3002D2994200F2CD808446591AA3B264
:100DE000B1FBFEF00EFB101443EA044408FB00F8CC
:100DF000A04507D92C1900F1FF3302D2A04500F21B
:100E0000B6801846A4EB080440EA0C409FE7C7F1FF
:100E1000200CBB4022FA0CFE4EEA030E01FA07F446
:100E200020FA0CF521FA0CF34FEA1E482543B3FBD8
:100E3000F8F92C0C08FB19331FFA8EFA44EA034325
:100E400009FB0AF49C4202FA07F200FA07F10BD9F7
:100E50001EEB030309F1FF3080F087809C4240F2D3
:100E60008480A9F1020973441B1BADB2B3FBF8F0F7
:100E700008FB103345EA034400FB0AFAA24508D9EF
:100E80001EEB040400F1FF336BD2A24569D902388E
:100E9000744440EA0940A0FB0289A4EB0A044C45D3
:100EA000C2464B4654D351D0002E69D0B1EB0A054F
:100EB00064EB030404FA0CFCFD40FC404CEA05051D
:100EC000C6E90054002747E7C2F1200320FA03F7E0
:100ED000954001FA02F021FA03F34FEA154E384328
:100EE000010CB3FBFEF71FFA85F80EFB173341EA3E
:100EF000034107FB08F38B4204FA02F407D969188F
:100F000007F1FF3C2FD28B422DD9023F2944CB1A47
:100F100081B2B3FBFEF00EFB103341EA034100FB4C
:100F200008F38B4207D9691800F1FF3C17D28B42B6
:100F300015D902382944C91A40EA07473BE7374622
:100F4000304609E70746E7E61846FBE64145ABD2DF
:100F5000B8EB020A69EB0E0201381346A4E76046BB
:100F6000E9E7184695E76746D1E781467CE702380E
:100F70002C4447E7ACF1020C2B442FE7384608E736
:100F80003746E9E6704700BF80B500AF0E4B1B68DF
:100F90000D4A43F4007313600B4B1B680A4A43F479
:100FA00080631360084B1B68074A43F48073136027
:100FB000032000F02BF9002000F008F803F0B2F94C
:100FC0000023184680BD00BF003C024080B582B0BF
:100FD00000AF7860124B1A68124B1B7819464FF419
:100FE0007A73B3FBF1F3B2FBF3F3184600F043F965
:100FF0000346002B01D001230EE07B680F2B0AD89B
:10100000002279684FF0FF3000F00BF9064A7B6848
:101010001360002300E0012318460837BD4680BD59
:1010200010000020040000200000002080B400AF69
:10103000064B1B781A46064B1B681344044A136080
:1010400000BFBD465DF8047B704700BF0400002070
:101050007C02002080B400AF034B1B681846BD46DD
:101060005DF8047B704700BF7C02002080B485B02F
:1010700000AF78607B6803F00703FB600C4BDB6814
:10108000BB60BA684FF6FF031340BB60FB681A02EF
:10109000BB68134343F0BF6343F40033BB60044AAF
:1010A000BB68D36000BF1437BD465DF8047B704752
:1010B00000ED00E080B400AF044BDB681B0A03F0D6
:1010C00007031846BD465DF8047B704700ED00E05D
:1010D00080B483B000AF0346FB7197F90730002B53
:1010E0000BDBFB7903F01F02074997F907305B0917
:1010F000012000FA02F241F8232000BF0C37BD4660
:101100005DF8047B704700BF00E100E080B483B06D
:1011100000AF03463960FB7197F90730002B0ADBFB
:101120003B68DAB20C4997F907301201D2B20B448E
:1011300083F800230AE03B68DAB20849FB7903F040
:101140000F03043B1201D2B20B441A7600BF0C37D6
:10115000BD465DF8047B704700E100E000ED00E073
:1011600080B489B000AFF860B9607A60FB6803F0C2
:101170000703FB61FB69C3F10703042B28BF0423AA
:10118000BB61FB690433062B02D9FB69033B00E01A
:1011900000237B614FF0FF32BB6902FA03F3DA43AD
:1011A000BB681A407B699A404FF0FF317B6901FAB6
:1011B00003F3D9437B680B40134318462437BD46DD
:1011C0005DF8047B7047000080B582B000AF7860A6
:1011D0007B68013BB3F1807F01D301230FE00A4A12
:1011E0007B68013B53600F214FF0FF30FFF78EFF0C
:1011F000054B00229A60044B07221A600023184610
:101200000837BD4680BD00BF10E000E080B582B069
:1012100000AF78607868FFF729FF00BF0837BD4648
:1012200080BD80B586B000AF0346B9607A60FB73BD
:1012300000237B61FFF73EFF78617A68B9687869BF
:10124000FFF78EFF024697F90F3011461846FFF759
:101250005DFF00BF1837BD4680BD80B582B000AFCE
:101260000346FB7197F907301846FFF731FF00BFBF
:101270000837BD4680BD80B582B000AF7860786821
:10128000FFF7A2FF034618460837BD4680BD0000A1
:1012900080B489B000AF7860396000237B6100239F
:1012A0003B610023BB610023FB616BE10122FB6911
:1012B00002FA03F37B613B681B687A6913403B6168
:1012C0003A697B699A4240F05A813B685B68022B1D
:1012D00003D03B685B68122B23D1FB69DA087B687B
:1012E000083253F82230BB61FB6903F007039B000F
:1012F0000F2202FA03F3DB43BA691340BB613B6878
:101300001A69FB6903F007039B0002FA03F3BA6949
:101310001343BB61FB69DA087B680832B96943F89B
:1013200022107B681B68BB61FB695B00032202FA29
:1013300003F3DB43BA691340BB613B685B6803F0AE
:101340000302FB695B0002FA03F3BA691343BB6152
:101350007B68BA691A603B685B68012B0BD03B68FD
:101360005B68022B07D03B685B68112B03D03B689E
:101370005B68122B30D17B689B68BB61FB695B00AB
:10138000032202FA03F3DB43BA691340BB613B68F3
:10139000DA68FB695B0002FA03F3BA691343BB61C5
:1013A0007B68BA699A607B685B68BB610122FB69F4
:1013B00002FA03F3DB43BA691340BB613B685B6825
:1013C0001B0903F00102FB6902FA03F3BA69134334
:1013D000BB617B68BA695A607B68DB68BB61FB698B
:1013E0005B00032202FA03F3DB43BA691340BB61DB
:1013F0003B689A68FB695B0002FA03F3BA6913431E
:10140000BB617B68BA69DA603B685B6803F0805354
:10141000002B00F0B4800023FB605F4B5B6C5E4AE6
:1014200043F4804353645C4B5B6C03F48043FB6088
:10143000FB685A4AFB699B08023352F82330BB61B0
:10144000FB6903F003039B000F2202FA03F3DB4363
:10145000BA691340BB617B68514A93422BD07B68C9
:10146000504A934225D07B684F4A93421FD07B68F5
:101470004E4A934219D07B684D4A934213D07B6801
:101480004C4A93420DD07B684B4A934207D07B680D
:101490004A4A934201D107230EE008230CE00623B9
:1014A0000AE0052308E0042306E0032304E0022306
:1014B00002E0012300E00023FA6902F00302920037
:1014C0009340BA691343BB613449FB699B080233FB
:1014D000BA6941F823203A4B1B68BB613B69DB4387
:1014E000BA691340BB613B685B6803F48033002B2F
:1014F00003D0BA693B691343BB61314ABB691360CE
:101500002F4B5B68BB613B69DB43BA691340BB612E
:101510003B685B6803F40033002B03D0BA693B6976
:101520001343BB61264ABB695360254B9B68BB6173
:101530003B69DB43BA691340BB613B685B6803F4FA
:101540008013002B03D0BA693B691343BB611C4A6B
:10155000BB6993601A4BDB68BB613B69DB43BA69CB
:101560001340BB613B685B6803F40013002B03D09E
:10157000BA693B691343BB61114ABB69D360FB691C
:101580000133FB61FB690F2B7FF690AE00BF243760
:10159000BD465DF8047B70470038024000380140CA
:1015A000000002400004024000080240000C02401B
:1015B000001002400014024000180240001C0240CB
:1015C000003C014080B483B000AF78600B467B8064
:1015D00013467B707B78002B03D07A887B689A61F6
:1015E00003E07B881A047B689A6100BF0C37BD4614
:1015F0005DF8047B7047000080B584B000AF786070
:101600007B68002B01D101230FE17B6893F83D300B
:10161000DBB2002B06D17B68002283F83C2078687F
:1016200002F07CFD7B68242283F83D207B681B68E8
:101630001A687B681B6822F001021A6001F014FB33
:10164000F8607B685B687B4A934207D8FB687A4AFC
:10165000934294BF01230023DBB206E0FB68774A84
:10166000934294BF01230023DBB2002B01D001235E
:10167000DBE0FB68724AA2FB03239B0CBB607B6828
:101680001B685B6823F03F017B681B68BA680A43EC
:101690005A607B681B681B6A23F03F017B685B68AC
:1016A000644A934202D8BB68013309E0BB684FF437
:1016B000967202FB03F3634AA2FB03239B090133E7
:1016C0007A6812680B4313627B681B68DB6923F43A
:1016D0004F4222F0FF027B685B6856498B420DD86F
:1016E000FB68591E7B685B685B00B1FBF3F3013359
:1016F000C3F30B03042B38BF04234FE07B689B68C4
:10170000002B11D1FB68581E7B6859680B465B00A3
:101710000B44B0FBF3F30133C3F30B03002B0CBFFB
:1017200001230023DBB212E0FB68581E7B68596876
:101730000B469B000B4499000B44B0FBF3F30133C1
:10174000C3F30B03002B0CBF01230023DBB2002BE0
:1017500001D0012322E07B689B68002B0ED1FB683F
:10176000581E7B6859680B465B000B44B0FBF3F3D3
:101770000133C3F30B0343F400430FE0FB68581E2F
:101780007B6859680B469B000B4499000B44B0FBE7
:10179000F3F30133C3F30B0343F44043796809685F
:1017A0001343CB617B681B681B6823F0C0017B6817
:1017B000DA697B681B6A1A437B681B680A431A60F4
:1017C0007B681B689B6823F4034323F0FF037A685C
:1017D00011697A68D26811437A6812680B43936082
:1017E0007B681B68DB6823F0FF017B685A697B68B4
:1017F0009B691A437B681B680A43DA607B681B6835
:101800001A687B681B6842F001021A607B6800223C
:101810001A647B68202283F83D207B6800221A63CB
:101820007B68002283F83E20002318461037BD460F
:1018300080BD00BFA08601007F841E00FF083D0020
:1018400083DE1B43D34D621080B588B002AFF860D1
:101850007A601A460B467B8113463B81FFF7FAFB01
:101860007861FB6893F83D30DBB2202B40F0E080DC
:101870007B690093192301227049F86800F034FC59
:101880000346002B01D00223D3E0FB6893F83C30E1
:10189000012B01D10223CCE0FB68012283F83C201C
:1018A000FB681B681B6803F00103012B07D0FB6872
:1018B0001B681A68FB681B6842F001021A60FB682B
:1018C0001B681A68FB681B6822F400621A60FB68D8
:1018D000212283F83D20FB68102283F83E20FB681C
:1018E00000221A64FB687A685A62FB683A895A8552
:1018F000FB685B8D9AB2FB681A85FB68504ADA6216
:1019000079897B693A6AF86800F0C2FA0346002BCD
:1019100001D001238DE000233B61FB681B685B69FC
:101920003B61FB681B689B693B613B6966E07A69C8
:10193000396AF86800F0AEFC0346002B0DD0FB6856
:101940001B6C042B07D1FB681B681A68FB681B68BB
:1019500042F400721A6001236BE0FB685B6A1A783C
:10196000FB681B681A61FB685B6A5A1CFB685A6259
:10197000FB685B8D9BB2013B9AB2FB685A85FB68A2
:101980001B8D013B9AB2FB681A85FB681B685B697B
:1019900003F00403042B1BD1FB681B8D002B17D015
:1019A000FB685B6A1A78FB681B681A61FB685B6AF4
:1019B0005A1CFB685A62FB685B8D9BB2013B9AB272
:1019C000FB685A85FB681B8D013B9AB2FB681A8540
:1019D0007A69396AF86800F09EFC0346002B0DD046
:1019E000FB681B6C042B07D1FB681B681A68FB683B
:1019F0001B6842F400721A6001231AE0FB681B8D19
:101A0000002B94D1FB681B681A68FB681B6842F4C2
:101A100000721A60FB68202283F83D20FB680022D8
:101A200083F83E20FB68002283F83C20002300E07E
:101A3000022318461837BD4680BD00BF02001000C3
:101A40000000FFFF80B58CB002AFF8607A601A46E4
:101A50000B467B8113463B81FFF7FCFA7862FB68FB
:101A600093F83D30DBB2202B40F00B827B6A009371
:101A7000192301227C49F86800F036FB0346002B4D
:101A800001D00223FEE1FB6893F83C30012B01D129
:101A90000223F7E1FB68012283F83C20FB681B6806
:101AA0001B6803F00103012B07D0FB681B681A6851
:101AB000FB681B6842F001021A60FB681B681A6829
:101AC000FB681B6822F400621A60FB68222283F81C
:101AD0003D20FB68102283F83E20FB6800221A6438
:101AE000FB687A685A62FB683A895A85FB685B8DA5
:101AF0009AB2FB681A85FB685C4ADA6279897B6A6C
:101B00003A6BF86800F03AFA0346002B01D0012343
:101B1000B8E1FB681B8D002B13D100233B62FB68EF
:101B20001B685B693B62FB681B689B693B623B6AA5
:101B3000FB681B681A68FB681B6842F400721A6035
:101B40008CE1FB681B8D012B1BD1FB681B681A689D
:101B5000FB681B6822F480621A600023FB61FB684B
:101B60001B685B69FB61FB681B689B69FB61FB6928
:101B7000FB681B681A68FB681B6842F400721A60F5
:101B80006CE1FB681B8D022B1BD1FB681B681A687C
:101B9000FB681B6822F480621A60FB681B681A6885
:101BA000FB681B6842F400621A600023BB61FB689B
:101BB0001B685B69BB61FB681B689B69BB61BB6998
:101BC0004CE1FB681B681A68FB681B6842F4806282
:101BD0001A6000237B61FB681B685B697B61FB68A3
:101BE0001B689B697B617B6938E1FB681B8D032B5C
:101BF00000F2F180FB681B8D012B23D17A6A396BCF
:101C0000F86800F0C9FB0346002B01D0012339E13D
:101C1000FB681B681A69FB685B6AD2B21A70FB68C2
:101C20005B6A5A1CFB685A62FB681B8D013B9AB2C7
:101C3000FB681A85FB685B8D9BB2013B9AB2FB681F
:101C40005A850BE1FB681B8D022B4ED17B6A0093FA
:101C50003B6B00220649F86800F046FA0346002B69
:101C600008D001230EE100BF020010000000FFFFBA
:101C700004000100FB681B681A68FB681B6842F4DB
:101C800000721A60FB681B681A69FB685B6AD2B253
:101C90001A70FB685B6A5A1CFB685A62FB681B8DF2
:101CA000013B9AB2FB681A85FB685B8D9BB2013BD6
:101CB0009AB2FB685A85FB681B681A69FB685B6A05
:101CC000D2B21A70FB685B6A5A1CFB685A62FB68E6
:101CD0001B8D013B9AB2FB681A85FB685B8D9BB23A
:101CE000013B9AB2FB685A85B8E07B6A00933B6B74
:101CF00000226649F86800F0F7F90346002B01D08E
:101D00000123BFE0FB681B681A68FB681B6822F4AC
:101D100080621A60FB681B681A69FB685B6AD2B252
:101D20001A70FB685B6A5A1CFB685A62FB681B8D61
:101D3000013B9AB2FB681A85FB685B8D9BB2013B45
:101D40009AB2FB685A857B6A00933B6B00224F492D
:101D5000F86800F0C9F90346002B01D0012391E097
:101D6000FB681B681A68FB681B6842F400721A6003
:101D7000FB681B681A69FB685B6AD2B21A70FB6861
:101D80005B6A5A1CFB685A62FB681B8D013B9AB266
:101D9000FB681A85FB685B8D9BB2013B9AB2FB68BE
:101DA0005A85FB681B681A69FB685B6AD2B21A70B5
:101DB000FB685B6A5A1CFB685A62FB681B8D013B1F
:101DC0009AB2FB681A85FB685B8D9BB2013B9AB2A5
:101DD000FB685A8542E07A6A396BF86800F0DCFAF1
:101DE0000346002B01D001234CE0FB681B681A69F5
:101DF000FB685B6AD2B21A70FB685B6A5A1CFB68AC
:101E00005A62FB681B8D013B9AB2FB681A85FB681E
:101E10005B8D9BB2013B9AB2FB685A85FB681B68DD
:101E20005B6903F00403042B18D1FB681B681A6973
:101E3000FB685B6AD2B21A70FB685B6A5A1CFB686B
:101E40005A62FB681B8D013B9AB2FB681A85FB68DE
:101E50005B8D9BB2013B9AB2FB685A85FB681B8D78
:101E6000002B7FF4C2AEFB68202283F83D20FB6884
:101E7000002283F83E20FB68002283F83C200023E8
:101E800000E0022318462837BD4680BD040001004B
:101E900080B588B002AFF8607A603B600B467B810A
:101EA000FB68DB6A7B617B69082B06D07B69012BB1
:101EB00003D07B6913F5803F08D1FB681B681A6863
:101EC000FB681B6842F480721A600BE0FB681B6BB6
:101ED000122B07D1FB681B681A68FB681B6842F469
:101EE00080721A603B6800937B6800224FF00111FA
:101EF000F86800F0F9F80346002B01D0012335E023
:101F0000FB681B69B3F5804F08D17B89DBB21A46A9
:101F1000FB681B6802F0FE021A611BE07B89DB1183
:101F2000DBB203F00603DBB263F00F03DAB2FB6847
:101F30001B681A613B687A680E49F86800F02BF953
:101F40000346002B01D0012310E07B89DAB2FB6845
:101F50001B681A613B687A680749F86800F01BF94A
:101F60000346002B01D0012300E000231846183758
:101F7000BD4680BD080001000200010080B588B0A8
:101F800002AFF8607A603B600B467B81FB68DB6ADE
:101F90007B61FB681B681A68FB681B6842F48062FF
:101FA0001A607B69082B06D07B69012B03D07B6903
:101FB00013F5803F08D1FB681B681A68FB681B6833
:101FC00042F480721A600BE0FB681B6B112B07D187
:101FD000FB681B681A68FB681B6842F480721A6011
:101FE0003B6800937B6800224FF00111F86800F015
:101FF0007BF80346002B01D001236DE0FB681B69D1
:10200000B3F5804F08D17B89DBB243F00103DAB22C
:10201000FB681B681A6153E07B89DB11DBB203F0BC
:102020000603DBB263F00F03DAB2FB681B681A61C8
:102030003B687A682A49F86800F0ADF80346002B3F
:1020400001D0012348E07B89DAB2FB681B681A6182
:102050003B687A682349F86800F09DF80346002B36
:1020600001D0012338E000233B61FB681B685B69FA
:102070003B61FB681B689B693B613B69FB681B68B4
:102080001A68FB681B6842F480721A603B68009310
:102090007B6800224FF00111F86800F025F8034634
:1020A000002B01D0012317E07B89DB11DBB203F0A9
:1020B0000603DBB263F00E03DAB2FB681B681A6139
:1020C0003B687A680749F86800F065F80346002B1A
:1020D00001D0012300E0002318461837BD4680BD1B
:1020E000080001000200010080B584B000AFF86074
:1020F000B9603B601346FB7125E03B68B3F1FF3FDD
:1021000021D0FEF7A7FF0246BB69D31A3A689A426C
:1021100002D33B68002B16D1FB6800221A63FB68D0
:10212000202283F83D20FB68002283F83E20FB68D4
:102130001B6C43F02002FB681A64FB68002283F8E2
:102140003C20012323E0BB681B0CDBB2012B0DD12B
:10215000FB681B685B69DA43BB6813409BB2002BCA
:102160000CBF01230023DBB21A460CE0FB681B689E
:102170009B69DA43BB6813409BB2002B0CBF012361
:102180000023DBB21A46FB799A42B6D000231846E8
:102190001037BD4680BD80B584B000AFF860B9602F
:1021A0007A603B6051E0FB681B685B6903F4806305
:1021B000B3F5806F23D1FB681B681A68FB681B6846
:1021C00042F400721A60FB681B686FF480625A6107
:1021D000FB6800221A63FB68202283F83D20FB681D
:1021E000002283F83E20FB681B6C43F00402FB686E
:1021F0001A64FB68002283F83C20012346E07B68D8
:10220000B3F1FF3F21D0FEF725FF02463B68D31A0A
:102210007A689A4202D37B68002B16D1FB680022B1
:102220001A63FB68202283F83D20FB68002283F8B4
:102230003E20FB681B6C43F02002FB681A64FB68BD
:10224000002283F83C20012320E0BB681B0CDBB29A
:10225000012B0CD1FB681B685B69DA43BB68134038
:102260009BB2002B14BF01230023DBB20BE0FB6801
:102270001B689B69DA43BB6813409BB2002B14BFF9
:1022800001230023DBB2002B8DD100231846103729
:10229000BD4680BD80B584B000AFF860B9607A609B
:1022A0002DE0F86800F0CEF80346002B01D00123A2
:1022B0002DE0BB68B3F1FF3F21D0FEF7CBFE024615
:1022C0007B68D31ABA689A4202D3BB68002B16D136
:1022D000FB6800221A63FB68202283F83D20FB681C
:1022E000002283F83E20FB681B6C43F02002FB6851
:1022F0001A64FB68002283F83C20012307E0FB6896
:102300001B685B6903F08003802BCAD10023184649
:102310001037BD4680BD80B584B000AFF860B960AD
:102320007A602DE0F86800F08DF80346002B01D0AC
:1023300001232DE0BB68B3F1FF3F21D0FEF78AFEF9
:1023400002467B68D31ABA689A4202D3BB68002B54
:1023500016D1FB6800221A63FB68202283F83D2017
:10236000FB68002283F83E20FB681B6C43F02002D0
:10237000FB681A64FB68002283F83C20012307E015
:10238000FB681B685B6903F00403042BCAD10023BC
:1023900018461037BD4680BD80B584B000AFF860E8
:1023A000B9607A6042E0FB681B685B6903F0100368
:1023B000102B19D1FB681B686FF010025A61FB6883
:1023C00000221A63FB68202283F83D20FB6800226C
:1023D00083F83E20FB681A6CFB681A64FB680022D5
:1023E00083F83C20012329E0FEF734FE02467B6897
:1023F000D31ABA689A4202D3BB68002B16D1FB6885
:1024000000221A63FB68202283F83D20FB6800222B
:1024100083F83E20FB681B6C43F02002FB681A64C3
:10242000FB68002283F83C20012307E0FB681B685F
:102430005B6903F04003402BB5D1002318461037E9
:10244000BD4680BD80B483B000AF78607B681B68F8
:102450005B6903F48063B3F5806F1BD17B681B68F5
:102460006FF480625A617B6800221A637B682022C5
:1024700083F83D207B68002283F83E207B681B6C3C
:1024800043F004027B681A647B68002283F83C20D6
:10249000012300E0002318460C37BD465DF8047B9D
:1024A0007047000080B586B000AF78607B68002B75
:1024B00001D101232DE27B681B6803F00103002B8F
:1024C00075D0A34B9B6803F00C03042B0CD0A04BDE
:1024D0009B6803F00C03082B12D19D4B5B6803F43F
:1024E0008003B3F5800F0BD1994B1B6803F40033C5
:1024F000002B5BD07B685B68002B57D1012308E27F
:102500007B685B68B3F5803F06D1914B1B68904AAE
:1025100043F4803313601DE07B685B68B3F5A02F44
:102520000CD18B4B1B688A4A43F480231360884B81
:102530001B68874A43F4803313600BE0844B1B68AD
:10254000834A23F480331360814B1B68804A23F451
:10255000802313607B685B68002B13D0FEF77AFD45
:10256000386108E0FEF776FD02463B69D31A642B1A
:1025700001D90323CDE1764B1B6803F40033002B14
:10258000F0D014E0FEF766FD386108E0FEF762FD6A
:1025900002463B69D31A642B01D90323B9E16C4B82
:1025A0001B6803F40033002BF0D100E000BF7B6810
:1025B0001B6803F00203002B63D0654B9B6803F09C
:1025C0000C03002B0BD0624B9B6803F00C03082B11
:1025D0001CD15F4B5B6803F48003002B16D15C4B6E
:1025E0001B6803F00203002B05D07B68DB68012B1E
:1025F00001D001238DE1564B1B6823F0F8027B6864
:102600001B69DB00524913430B603AE07B68DB68CF
:10261000002B20D04F4B01221A60FEF71BFD3861C2
:1026200008E0FEF717FD02463B69D31A022B01D9D9
:1026300003236EE1464B1B6803F00203002BF0D02E
:10264000434B1B6823F0F8027B681B69DB004049A1
:1026500013430B6015E03F4B00221A60FEF7FAFCB3
:10266000386108E0FEF7F6FC02463B69D31A022BFC
:1026700001D903234DE1364B1B6803F00203002B05
:10268000F0D17B681B6803F00803002B30D07B6817
:102690005B69002B16D0304B01221A60FEF7DAFC82
:1026A000386108E0FEF7D6FC02463B69D31A022BDC
:1026B00001D903232DE1264B5B6F03F00203002BAE
:1026C000F0D015E0244B00221A60FEF7C3FC3861FD
:1026D00008E0FEF7BFFC02463B69D31A022B01D982
:1026E000032316E11A4B5B6F03F00203002BF0D1BA
:1026F0007B681B6803F00403002B00F0A08000231C
:10270000FB75134B1B6C03F08053002B0FD1002380
:10271000FB600F4B1B6C0E4A43F0805313640C4B51
:102720001B6C03F08053FB60FB680123FB750B4BB4
:102730001B6803F48073002B21D1084B1B68074AE8
:1027400043F480731360FEF785FC386111E000BF2D
:102750000038024000004742800E474200700040AF
:10276000FEF778FC02463B69D31A022B01D90323FA
:10277000CFE06A4B1B6803F48073002BF0D07B68BA
:102780009B68012B06D1664B1B6F654A43F0010322
:1027900013671CE07B689B68052B0CD1604B1B6F9B
:1027A0005F4A43F0040313675D4B1B6F5C4A43F0C1
:1027B000010313670BE05A4B1B6F594A23F00103C7
:1027C0001367574B1B6F564A23F0040313677B684C
:1027D0009B68002B15D0FEF73DFC38610AE0FEF740
:1027E00039FC02463B69D31A41F28832934201D93F
:1027F00003238EE04A4B1B6F03F00203002BEED045
:1028000014E0FEF727FC38610AE0FEF723FC0246DD
:102810003B69D31A41F28832934201D9032378E00D
:102820003F4B1B6F03F00203002BEED1FB7D012B0E
:1028300005D13B4B1B6C3A4A23F0805313647B68F1
:102840009B69002B64D0364B9B6803F00C03082B6C
:102850005CD07B689B69022B41D1324B00221A600D
:10286000FEF7F8FB386108E0FEF7F4FB02463B692F
:10287000D31A022B01D903234BE0294B1B6803F029
:102880000073002BF0D17B68DA697B681B6A1A43FE
:102890007B685B6A9B011A437B689B6A5B08013B10
:1028A0001B041A437B68DB6A1B061D4913434B60FC
:1028B0001C4B01221A60FEF7CDFB386108E0FEF7E1
:1028C000C9FB02463B69D31A022B01D9032320E03E
:1028D000134B1B6803F00073002BF0D018E0114B72
:1028E00000221A60FEF7B6FB386108E0FEF7B2FB83
:1028F00002463B69D31A022B01D9032309E0084B96
:102900001B6803F00073002BF0D101E0012300E00D
:10291000002318461837BD4680BD00BF0070004038
:10292000003802406000474280B584B000AF786054
:1029300039607B68002B01D10123CAE0674B1B681B
:1029400003F00F033A689A420CD9644B3A68D2B24A
:102950001A70624B1B6803F00F033A689A4201D069
:102960000123B6E07B681B6803F00203002B20D034
:102970007B681B6803F00403002B05D0584B9B6851
:10298000574A43F4E05393607B681B6803F00803E5
:10299000002B05D0524B9B68514A43F4604393602F
:1029A0004F4B9B6823F0F0027B689B684C491343B4
:1029B0008B607B681B6803F00103002B44D07B68AD
:1029C0005B68012B07D1464B1B6803F40033002BD7
:1029D00019D101237DE07B685B68022B03D07B6803
:1029E0005B68032B07D13E4B1B6803F00073002B81
:1029F00009D101236DE03A4B1B6803F00203002B61
:102A000001D1012365E0364B9B6823F003027B680C
:102A10005B68334913438B60FEF71CFBF8600AE0E8
:102A2000FEF718FB0246FB68D31A41F28832934244
:102A300001D903234DE02A4B9B6803F00C027B680D
:102A40005B689B009A42EBD1244B1B6803F00F0399
:102A50003A689A420CD2214B3A68D2B21A701F4B94
:102A60001B6803F00F033A689A4201D0012330E05B
:102A70007B681B6803F00403002B08D0184B9B688D
:102A800023F4E0527B68DB68154913438B607B6855
:102A90001B6803F00803002B09D0114B9B6823F43B
:102AA00060427B681B69DB000D4913438B6000F0BB
:102AB0001DF801460A4B9B681B0903F00F03094AE6
:102AC000D35C21FA03F3084A13600020FEF77EFA74
:102AD000002318461037BD4680BD00BF003C0240B1
:102AE00000380240089E000810000020F0B585B0B4
:102AF00000AF00237B600023FB6000233B600023CA
:102B0000BB60504B9B6803F00C03042B07D0082BD1
:102B100008D0002B40F08D804B4BBB608CE04B4BC2
:102B2000BB6089E0474B5B6803F03F037B60454B2C
:102B30005B6803F48003002B23D0424B5B689B0946
:102B40004FF0000440F2FF114FF0000203EA0105CC
:102B500004EA02063D4A02FB06F1002202FB05F2EE
:102B60000A443A49A5FB0101531819467B684FF006
:102B700000041A462346FEF787F803460C46FB601E
:102B800049E0304B5B689B094FF0000440F2FF11B5
:102B90004FF0000203EA010504EA02062946324624
:102BA0004FF000034FF00004540144EAD1644B019C
:102BB00019462246491B62EB06024FF000034FF014
:102BC0000004940144EA91648B015B1A64EB0204F3
:102BD0004FF000014FF00002E20042EA5372D900C8
:102BE0000B4614465B1944EB06044FF000014FF00E
:102BF0000002A20242EA935299020B46144618467A
:102C000021467B684FF000041A462346FEF73CF845
:102C100003460C46FB600B4B5B681B0C03F0030385
:102C200001335B003B60FA683B68B2FBF3F3BB60C7
:102C300002E0054BBB6000BFBB6818461437BD46B9
:102C4000F0BD00BF003802400024F40040787D0150
:102C500080B400AF034B1B681846BD465DF8047B8B
:102C6000704700BF1000002080B500AFFFF7F0FFF5
:102C70000146054B9B689B0A03F00703034AD35C9C
:102C800021FA03F3184680BD00380240189E000860
:102C900080B500AFFFF7DCFF0146054B9B685B0B7F
:102CA00003F00703034AD35C21FA03F3184680BDFF
:102CB00000380240189E000880B582B000AF7860EE
:102CC0007B68002B01D101231DE07B6893F83D3028
:102CD000DBB2002B06D17B68002283F83C207868A9
:102CE00001F0CEFF7B68022283F83D207B681A68E2
:102CF0007B6804331946104600F04EFB7B680122C6
:102D000083F83D20002318460837BD4680BD80B4B7
:102D100085B000AF78607B681B68DA687B681B68E9
:102D200042F00102DA607B681B689B6803F00703CE
:102D3000FB60FB68062B07D07B681B681A687B6802
:102D40001B6842F001021A60002318461437BD4682
:102D50005DF8047B704780B582B000AF78607B6817
:102D6000002B01D101231DE07B6893F83D30DBB2DD
:102D7000002B06D17B68002283F83C20786801F0A4
:102D80005DFF7B68022283F83D207B681A687B68C0
:102D900004331946104600F0FFFA7B68012283F8DD
:102DA0003D20002318460837BD4680BD80B584B05D
:102DB00000AF786039607B681B680122396818466B
:102DC00000F0D4FD7B681B68154A934204D07B68F1
:102DD0001B68144A934201D1012300E00023002B19
:102DE00007D07B681B685A6C7B681B6842F4004202
:102DF0005A647B681B689B6803F00703FB60FB68F1
:102E0000062B07D07B681B681A687B681B6842F03A
:102E100001021A60002318461037BD4680BD00BF6E
:102E2000000001400004014080B582B000AF78602E
:102E30007B681B681B6903F00203022B22D17B68AD
:102E40001B68DB6803F00203022B1BD17B681B6845
:102E50006FF002021A617B6801221A777B681B6897
:102E60009B6903F00303002B03D0786800F075FA28
:102E700005E0786800F067FA786800F078FA7B6817
:102E800000221A777B681B681B6903F00403042B7C
:102E900022D17B681B68DB6803F00403042B1BD181
:102EA0007B681B686FF004021A617B6802221A7744
:102EB0007B681B689B6903F44073002B03D0786820
:102EC00000F04BFA05E0786800F03DFA786800F011
:102ED0004EFA7B6800221A777B681B681B6903F037
:102EE0000803082B22D17B681B68DB6803F008030A
:102EF000082B1BD17B681B686FF008021A617B6886
:102F000004221A777B681B68DB6903F00303002B3C
:102F100003D0786800F021FA05E0786800F013FA31
:102F2000786800F024FA7B6800221A777B681B68B7
:102F30001B6903F01003102B22D17B681B68DB6830
:102F400003F01003102B1BD17B681B686FF010027D
:102F50001A617B6808221A777B681B68DB6903F4B7
:102F60004073002B03D0786800F0F7F905E078682B
:102F700000F0E9F9786800F0FAF97B6800221A7726
:102F80007B681B681B6903F00103012B0ED17B6872
:102F90001B68DB6803F00103012B07D17B681B680A
:102FA0006FF001021A61786800F0C3F97B681B6852
:102FB0001B6903F08003802B0ED17B681B68DB68E4
:102FC00003F08003802B07D17B681B686FF08002C1
:102FD0001A61786800F090FD7B681B681B6903F03C
:102FE0004003402B0ED17B681B68DB6803F0400375
:102FF000402B07D17B681B686FF040021A6178682C
:1030000000F0BFF97B681B681B6903F02003202BCD
:103010000ED17B681B68DB6803F02003202B07D1EF
:103020007B681B686FF020021A61786800F05AFD17
:1030300000BF0837BD4680BD80B584B000AFF860E2
:10304000B9607A60FB6893F83C30012B01D1022310
:10305000B4E0FB68012283F83C20FB68022283F87D
:103060003D207B680C2B00F29F8001A252F823F0D8
:10307000A5300008A9310008A9310008A9310008CD
:10308000E5300008A9310008A9310008A93100087D
:1030900027310008A9310008A9310008A93100082A
:1030A00067310008FB681B68B968184600F014FA1D
:1030B000FB681B689A69FB681B6842F008029A610A
:1030C000FB681B689A69FB681B6822F004029A611E
:1030D000FB681B689969BB681A69FB681B680A432F
:1030E0009A6162E0FB681B68B968184600F064FAF0
:1030F000FB681B689A69FB681B6842F400629A616E
:10310000FB681B689A69FB681B6822F480629A61FD
:10311000FB681B689969BB681B691A02FB681B681E
:103120000A439A6141E0FB681B68B968184600F0E1
:10313000B9FAFB681B68DA69FB681B6842F0080291
:10314000DA61FB681B68DA69FB681B6822F004021D
:10315000DA61FB681B68D969BB681A69FB681B6880
:103160000A43DA6121E0FB681B68B968184600F081
:103170000DFBFB681B68DA69FB681B6842F40062A0
:10318000DA61FB681B68DA69FB681B6822F48062FD
:10319000DA61FB681B68D969BB681B691A02FB68A6
:1031A0001B680A43DA6100E000BFFB68012283F874
:1031B0003D20FB68002283F83C200023184610378E
:1031C000BD4680BD80B584B000AF786039607B6853
:1031D00093F83C30012B01D10223A6E07B68012249
:1031E00083F83C207B68022283F83D207B681B68C3
:1031F0009B68FB60FB6823F07703FB60FB6823F4AC
:103200007F43FB607B681B68FA689A603B681B68B9
:10321000402B67D0402B0BD8102B73D0102B02D82B
:10322000002B6FD078E0202B6CD0302B6AD073E06D
:10323000702B0DD0702B04D8502B33D0602B41D085
:103240006AE0B3F5805F66D0B3F5005F17D063E046
:103250007B6818683B6899683B685A683B68DB681C
:1032600000F064FB7B681B689B68FB60FB6843F0B5
:103270007703FB607B681B68FA689A604CE07B68A8
:1032800018683B6899683B685A683B68DB6800F0DF
:103290004DFB7B681B689A687B681B6842F4804220
:1032A0009A6039E07B6818683B6859683B68DB685E
:1032B0001A4600F0C1FA7B681B685021184600F0DE
:1032C0001AFB29E07B6818683B6859683B68DB6833
:1032D0001A4600F0E0FA7B681B686021184600F08F
:1032E0000AFB19E07B6818683B6859683B68DB6833
:1032F0001A4600F0A1FA7B681B684021184600F0CE
:10330000FAFA09E07B681A683B681B6819461046A0
:1033100000F0F1FA00E000BF7B68012283F83D2055
:103320007B68002283F83C20002318461037BD46F6
:1033300080BD80B483B000AF786000BF0C37BD465D
:103340005DF8047B704780B483B000AF786000BF45
:103350000C37BD465DF8047B704780B483B000AF86
:10336000786000BF0C37BD465DF8047B704780B4C1
:1033700083B000AF786000BF0C37BD465DF8047BBA
:10338000704780B483B000AF786000BF0C37BD4693
:103390005DF8047B7047000080B485B000AF7860B2
:1033A00039607B681B68FB607B68404A934213D09E
:1033B0007B68B3F1804F0FD07B683D4A93420BD0BE
:1033C0007B683C4A934207D07B683B4A934203D0D8
:1033D0007B683A4A934208D1FB6823F07003FB6094
:1033E0003B685B68FA681343FB607B682F4A934233
:1033F0002BD07B68B3F1804F27D07B682C4A934257
:1034000023D07B682B4A93421FD07B682A4A934281
:103410001BD07B68294A934217D07B68284A934285
:1034200013D07B68274A93420FD07B68264A934289
:103430000BD07B68254A934207D07B68244A93428D
:1034400003D07B68234A934208D1FB6823F440737E
:10345000FB603B68DB68FA681343FB60FB6823F0A2
:1034600080023B685B691343FB607B68FA681A6003
:103470003B689A687B68DA623B681A687B689A6284
:103480007B680A4A934203D07B680C4A934203D17B
:103490003B681A697B681A637B6801225A6100BF26
:1034A0001437BD465DF8047B704700BF0000014043
:1034B0000004004000080040000C004000040140EF
:1034C0000040014000440140004801400018004015
:1034D000001C00400020004080B487B000AF78603E
:1034E00039607B681B6A23F001027B681A627B6883
:1034F0001B6A7B617B685B683B617B689B69FB60E7
:10350000FB6823F07003FB60FB6823F00303FB60A0
:103510003B681B68FA681343FB607B6923F0020376
:103520007B613B689B687A6913437B617B68204AB7
:10353000934203D07B681F4A93420CD17B6923F0EE
:1035400008037B613B68DB687A6913437B617B69B5
:1035500023F004037B617B68154A934203D07B68A8
:10356000144A934211D13B6923F480733B613B6958
:1035700023F400733B613B685B693A6913433B6129
:103580003B689B693A6913433B617B683A695A60BF
:103590007B68FA689A613B685A687B685A637B6803
:1035A0007A691A6200BF1C37BD465DF8047B70471C
:1035B000000001400004014080B487B000AF786093
:1035C00039607B681B6A23F010027B681A627B6893
:1035D0001B6A7B617B685B683B617B689B69FB6006
:1035E000FB6823F4E043FB60FB6823F44073FB605B
:1035F0003B681B681B02FA681343FB607B6923F07E
:1036000020037B613B689B681B017A6913437B61E4
:103610007B68224A934203D07B68214A93420DD1B2
:103620007B6923F080037B613B68DB681B017A695F
:1036300013437B617B6923F040037B617B68174AFE
:10364000934203D07B68164A934213D13B6923F41B
:1036500080633B613B6923F400633B613B685B69CA
:103660009B003A6913433B613B689B699B003A6945
:1036700013433B617B683A695A607B68FA689A61D8
:103680003B685A687B689A637B687A691A6200BFF4
:103690001C37BD465DF8047B704700BF0000014049
:1036A0000004014080B487B000AF786039607B6867
:1036B0001B6A23F480727B681A627B681B6A7B61D9
:1036C0007B685B683B617B68DB69FB60FB6823F0C0
:1036D0007003FB60FB6823F00303FB603B681B681F
:1036E000FA681343FB607B6923F400737B613B68DA
:1036F0009B681B027A6913437B617B68214A934272
:1037000003D07B68204A93420DD17B6923F4006388
:103710007B613B68DB681B027A6913437B617B69D1
:1037200023F480637B617B68164A934203D07B68F5
:10373000154A934213D13B6923F480533B613B69A3
:1037400023F400533B613B685B691B013A691343F7
:103750003B613B689B691B013A6913433B617B6892
:103760003A695A607B68FA68DA613B685A687B6834
:10377000DA637B687A691A6200BF1C37BD465DF860
:10378000047B7047000001400004014080B487B012
:1037900000AF786039607B681B6A23F480527B68D5
:1037A0001A627B681B6A3B617B685B687B617B6834
:1037B000DB69FB60FB6823F4E043FB60FB6823F4F8
:1037C0004073FB603B681B681B02FA681343FB6095
:1037D0003B6923F400533B613B689B681B033A69D8
:1037E00013433B617B68124A934203D07B68114AC2
:1037F000934209D17B6923F480437B613B685B6919
:103800009B017A6913437B617B687A695A607B68A4
:10381000FA68DA613B685A687B681A647B683A69BF
:103820001A6200BF1C37BD465DF8047B704700BFBD
:10383000000001400004014080B487B000AFF86090
:10384000B9607A60FB681B6A7B61FB681B6A23F0C6
:103850000102FB681A62FB689B693B613B6923F0CC
:10386000F0033B617B681B013A6913433B617B6951
:1038700023F00A037B617A69BB6813437B61FB68B1
:103880003A699A61FB687A691A6200BF1C37BD46C3
:103890005DF8047B704780B487B000AFF860B96012
:1038A0007A60FB681B6A23F01002FB681A62FB68EF
:1038B0009B697B61FB681B6A3B617B6923F47043F6
:1038C0007B617B681B037A6913437B613B6923F04F
:1038D000A0033B61BB681B013A6913433B61FB6872
:1038E0007A699A61FB683A691A6200BF1C37BD4663
:1038F0005DF8047B704780B485B000AF78603960B4
:103900007B689B68FB60FB6823F07003FB603A6890
:10391000FB68134343F00703FB607B68FA689A6017
:1039200000BF1437BD465DF8047B704780B487B094
:1039300000AFF860B9607A603B60FB689B687B61B0
:103940007B6923F47F437B613B681A027B681A43DF
:10395000BB6813437A6913437B61FB687A699A6099
:1039600000BF1C37BD465DF8047B704780B487B04C
:1039700000AFF860B9607A60BB6803F01F030122F2
:1039800002FA03F37B61FB681A6A7B69DB431A4026
:10399000FB681A62FB681A6ABB6803F01F03796848
:1039A00001FA03F31A43FB681A6200BF1C37BD46D5
:1039B0005DF8047B704780B485B000AF78603960F3
:1039C0007B6893F83C30012B01D1022332E07B6805
:1039D000012283F83C207B68022283F83D207B682B
:1039E0001B685B68FB607B681B689B68BB60FB684F
:1039F00023F07003FB603B681B68FA681343FB60AD
:103A0000BB6823F08003BB603B685B68BA68134304
:103A1000BB607B681B68FA685A607B681B68BA6881
:103A20009A607B68012283F83D207B68002283F83E
:103A30003C20002318461437BD465DF8047B7047D0
:103A400080B485B000AF786039600023FB607B688C
:103A500093F83C30012B01D102233DE07B68012229
:103A600083F83C20FB6823F0FF023B68DB681343CC
:103A7000FB60FB6823F440723B689B681343FB6068
:103A8000FB6823F480623B685B681343FB60FB6860
:103A900023F400623B681B681343FB60FB6823F45C
:103AA00080523B681B691343FB60FB6823F40052A0
:103AB0003B685B691343FB60FB6823F480423B680F
:103AC000DB691343FB607B681B68FA685A647B6898
:103AD000002283F83C20002318461437BD465DF8C9
:103AE000047B704780B483B000AF786000BF0C37B0
:103AF000BD465DF8047B704780B483B000AF78604A
:103B000000BF0C37BD465DF8047B704780B582B0BE
:103B100000AF78607B68002B01D101233FE07B6818
:103B200093F83930DBB2002B06D17B68002283F892
:103B30003820786801F030F97B68242283F8392036
:103B40007B681B68DA687B681B6822F40052DA60C5
:103B5000786800F029F87B681B681A697B681B6825
:103B600022F490421A617B681B685A697B681B6863
:103B700022F02A025A617B681B68DA687B681B683E
:103B800042F40052DA607B680022DA637B6820220C
:103B900083F839207B68202283F83A2000231846D6
:103BA0000837BD4680BD0000B0B584B000AF786076
:103BB0007B681B681B6923F440517B68DA687B686B
:103BC0001B680A431A617B689A687B681B691A4301
:103BD0007B685B691A437B68DB691343FB607B6826
:103BE0001B68DB6823F4164323F00C037A68126821
:103BF000F9680B43D3607B681B685B6923F44071F1
:103C00007B689A697B681B680A435A617B68DB6939
:103C1000B3F5004F40F0E4807B681B68AB4A9342E9
:103C200004D07B681B68AA4A93426CD1FFF730F836
:103C3000024613469B0013449A001A447B685B6853
:103C40005B00B2FBF3F3A34AA2FB03235B091C0155
:103C5000FFF71EF8024613469B0013449A001A44CD
:103C60007B685B685B00B2FBF3F5FFF711F8024677
:103C700013469B0013449A001A447B685B685B0000
:103C8000B2FBF3F3934AA2FB03235B09642202FB1A
:103C900003F3EB1ADB0032338E4AA2FB03235B09EA
:103CA0005B0003F4F8731C44FEF7F2FF0246134670
:103CB0009B0013449A001A447B685B685B00B2FB6C
:103CC000F3F5FEF7E5FF024613469B0013449A0006
:103CD0001A447B685B685B00B2FBF3F37D4AA2FB8E
:103CE00003235B09642202FB03F3EB1ADB0032338C
:103CF000784AA2FB03235B0903F007027B681B6879
:103D000022449A6054E1FEF7AFFF024613469B003F
:103D100013449A001A447B685B685B00B2FBF3F3C0
:103D20006C4AA2FB03235B091C01FEF79DFF0246C0
:103D300013469B0013449A001A447B685B685B003F
:103D4000B2FBF3F5FEF790FF024613469B001344C7
:103D50009A001A447B685B685B00B2FBF3F35D4A30
:103D6000A2FB03235B09642202FB03F3EB1ADB00D3
:103D70003233584AA2FB03235B095B0003F4F87358
:103D80001C44FEF771FF024613469B0013449A0041
:103D90001A447B685B685B00B2FBF3F5FEF764FFD7
:103DA000024613469B0013449A001A447B685B68E2
:103DB0005B00B2FBF3F3474AA2FB03235B096422D7
:103DC00002FB03F3EB1ADB003233424AA2FB03236C
:103DD0005B0903F007027B681B6822449A60E7E0F6
:103DE0007B681B68394A934204D07B681B68384A59
:103DF000934271D1FEF74CFF024613469B001344D9
:103E00009A001A447B685B689B00B2FBF3F3314A6B
:103E1000A2FB03235B091C01FEF73AFF024613468F
:103E20009B0013449A001A447B685B689B00B2FBBA
:103E3000F3F5FEF72DFF024613469B0013449A004C
:103E40001A447B685B689B00B2FBF3F3214AA2FB38
:103E500003235B09642202FB03F3EB1A1B013233D9
:103E60001C4AA2FB03235B0903F0F0031C44FEF78A
:103E70000FFF024613469B0013449A001A447B68C6
:103E80005B689B00B2FBF3F5FEF702FF02461346A8
:103E90009B0013449A001A447B685B689B00B2FB4A
:103EA000F3F30C4AA2FB03235B09642202FB03F336
:103EB000EB1A1B013233074AA2FB03235B0903F011
:103EC0000F027B681B6822449A6071E00010014079
:103ED000001401401F85EB51FEF7C6FE0246134653
:103EE0009B0013449A001A447B685B689B00B2FBFA
:103EF000F3F3314AA2FB03235B091C01FEF7B4FE76
:103F0000024613469B0013449A001A447B685B6880
:103F10009B00B2FBF3F5FEF7A7FE024613469B009B
:103F200013449A001A447B685B689B00B2FBF3F36E
:103F3000214AA2FB03235B09642202FB03F3EB1A71
:103F40001B0132331C4AA2FB03235B0903F0F0037D
:103F50001C44FEF789FE024613469B0013449A0058
:103F60001A447B685B689B00B2FBF3F5FEF77CFEAE
:103F7000024613469B0013449A001A447B685B6810
:103F80009B00B2FBF3F30C4AA2FB03235B09642200
:103F900002FB03F3EB1A1B013233074AA2FB032394
:103FA0005B0903F00F027B681B6822449A60FFE7FD
:103FB00000BF1037BD46B0BD1F85EB5180B58AB03C
:103FC00000AF07F1140300221A605A609A60DA60A9
:103FD0001A6100233B61374B1B6B364A43F00103E8
:103FE0001363344B1B6B03F001033B613B690023FC
:103FF000FB60304B1B6B2F4A43F0040313632D4BC4
:104000001B6B03F00403FB60FB680023BB60294BC0
:104010001B6B284A43F010031363264B1B6B03F002
:104020001003BB60BB6800237B60224B1B6B214AE3
:1040300043F0020313631F4B1B6B03F002037B600F
:104040007B68002203211C48FDF7BCFA00223021C6
:104050001A48FDF7B7FA03237B610123BB610023F4
:10406000FB6102233B6207F1140319461248FDF776
:104070000FF910237B610123BB610023FB61022345
:104080003B6207F1140319460C48FDF701F92023A0
:104090007B610123BB610023FB6103233B6207F1CA
:1040A000140319460548FDF7F3F800BF2837BD464D
:1040B00080BD00BF003802400000024000080240FE
:1040C00080B500AF124B134A1A60114B124A5A6066
:1040D0000F4B00229A600E4B0022DA600C4B4FF41B
:1040E00080421A610A4B00225A61094B00229A61F0
:1040F000074B0022DA61064B00221A620448FDF7E2
:104100007BFA0346002B01D000F004F900BF80BD0C
:104110008002002000540040A086010080B58AB0D3
:1041200000AF786007F1140300221A605A609A60A9
:10413000DA601A617B681B68194A93422BD100230D
:104140003B61184B1B6B174A43F002031363154B7B
:104150001B6B03F002033B613B69C0237B611223AD
:10416000BB610123FB6103233B6204237B6207F1F4
:10417000140319460C48FDF78BF80023FB60094B2C
:104180001B6C084A43F400131364064B1B6C03F4C6
:104190000013FB60FB6800BF2837BD4680BD00BF31
:1041A00000540040003802400004024080B500AFD7
:1041B000FCF7EAFE00F01CF8FFF700FFFFF780FFB6
:1041C00000F05EFC00F0ECFC00F0BCFD00F06EF8CE
:1041D00000210548FEF7EAFD04210348FEF7E6FD4D
:1041E0000248FEF794FDFEE72C030020EC020020BD
:1041F00080B594B000AF07F12003302200211846AB
:1042000000F066FE07F10C0300221A605A609A6003
:10421000DA601A610023BB60224B1B6C214A43F019
:10422000805313641F4B1B6C03F08053BB60BB684F
:1042300000237B601C4B1B681B4A43F480431360C4
:10424000194B1B6803F480437B607B6802233B624D
:104250000123FB6210233B630023BB6307F12003B0
:104260001846FEF71FF90346002B01D000F052F864
:104270000F23FB6000233B6100237B610023BB61B4
:104280000023FB6107F10C0300211846FEF74CFBED
:104290000346002B01D000F03DF800BF5037BD466B
:1042A00080BD00BF003802400070004080B582B081
:1042B00002AF164B6B221A70144B00225A70642303
:1042C00000930223114AD0211148FDF7BDFA0F4B8C
:1042D00019221A700D4B07225A706423009302238F
:1042E0000A4AD0210A48FDF7AFFA084B19221A7082
:1042F000064B07225A70642300930223034AD021FD
:104300000348FDF7A1FA00BFBD4680BDE4020020CE
:104310008002002080B400AF00BFBD465DF8047B82
:104320007047000080B483B000AF00237B60104B67
:104330005B6C0F4A43F4804353640D4B5B6C03F496
:1043400080437B607B6800233B60094B1B6C084A01
:1043500043F080531364064B1B6C03F080533B60A7
:104360003B6800BF0C37BD465DF8047B704700BF5B
:104370000038024080B400AF00BFBD465DF8047B4A
:10438000704780B400AFFEE780B400AFFEE780B4B2
:1043900000AFFEE780B400AFFEE780B400AF00BF1F
:1043A000BD465DF8047B704780B400AF00BFBD46DA
:1043B0005DF8047B704780B400AF00BFBD465DF878
:1043C000047B704780B500AFFCF730FE00BF80BDB6
:1043D00098B500AF2C48FEF727FD00F069F82B4B8D
:1043E000D3E9003418462146FCF7FEFB0246284B71
:1043F0001A60284B93ED007A254BD3ED007A77EEC7
:10440000677A254BC3ED007A234B93ED007A224B5C
:10441000D3ED027A77EE277A1F4BC3ED027A1E4B5B
:1044200093ED007A1D4BD3ED007A27EE277A1A4BD5
:10443000D3ED026A1A4BD3ED007A66EEA77A37EE17
:10444000277A154BD3ED006A134BD3ED017A76EE44
:10445000E76A144BD3ED007A66EEA77A77EE277AF7
:10446000114BC3ED007A104B1B681846FCF76CF833
:1044700003460C4644EC103B00F0EAF9064B1B687F
:10448000054A536000BF98BDEC02002028020020BE
:10449000040200200C020020180200200800002066
:1044A000080200200C000020E802002000000000AC
:1044B0002DE9F04383B002AFC94B3B221A70C84BC1
:1044C00000225A70642300930123C54AD021C548B5
:1044D000FDF7BAF9642300930E23C34AD021C148E3
:1044E000FDF7B0FAC04B1B781B021AB2BE4B5B78CB
:1044F0001BB213431BB207EE903AF8EEE77A9FED3A
:10450000BB7AC7EE876A16EE900AFCF71DF80346E1
:104510000C46B74AC2E90034B34B9B781B021AB26F
:10452000B14BDB781BB213431BB207EE903AF8EEA7
:10453000E77A9FEDAE7AC7EE876A16EE900AFCF72F
:1045400003F803460C46AB4AC2E90034A64B1B797C
:104550001B021AB2A44B5B791BB213431BB207EECA
:10456000903AF8EEE77A9FEDA17AC7EE876A16EEE9
:10457000900AFBF7E9FF03460C469F4AC2E9003464
:10458000994B9B7A1B021AB2974BDB7A1BB21343EF
:104590001BB207EE903AF8EEE77A9FED987AC7EEF5
:1045A000876A16EE900AFBF7CFFF03460C46944A43
:1045B000C2E900348C4B1B7A1B021AB28A4B5B7A1D
:1045C0001BB213431BB207EE903AF8EEE77A9FED69
:1045D0008B7AC7EE876A16EE900AFBF7B5FF0346A3
:1045E0000C46884AC2E90034814BD3E900341D46A9
:1045F00084F000467F4B93ED007B9FED6F1BB0EE88
:10460000470AF0EE670A04F04DFB59EC108B7A4B29
:1046100093ED007B9FED681BB0EE470AF0EE670A52
:1046200004F040FB54EC103B1A46234640464946F2
:10463000FBF72CFE03460C4644EC173BB0EE470A52
:10464000F0EE670A04F09EFC54EC103B1A46234639
:1046500028463146FCF7FAF803460C4644EC173B73
:10466000B0EE470AF0EE670A04F072F951EC100B55
:1046700053A3D3E90023FBF7BFFF03460C46624A6E
:10468000C2E902345B4BD3E90045594B93ED007B03
:104690009FED491BB0EE470AF0EE670A04F002FBFB
:1046A00059EC108B544B93ED007B9FED431BB0EE08
:1046B000470AF0EE670A04F0F5FA53EC102B404677
:1046C0004946FBF7E3FD02460B4643EC172BB0EEE1
:1046D000470AF0EE670A04F055FC53EC102B204615
:1046E0002946FCF7B3F803460C4644EC173BB0EE02
:1046F000470AF0EE670A04F02BF951EC100B30A3D7
:10470000D3E90023FBF778FF03460C463E4AC2E993
:1047100000343E4BD3E900453A4BD3E900012AA3CC
:10472000D3E90023FBF768FF02460B4620462946E3
:10473000FBF7ACFD03460C461846214624A3D3E9FB
:104740000023FBF759FF03460C4625461C462E4B1B
:10475000D3E9000120A3D3E90023FBF74DFF024674
:104760000B4620462946FBF791FD03460C46274A97
:10477000C2E90034254BD3E90245214BD3E90001BE
:1047800011A3D3E90023FBF737FF02460B4620466F
:104790002946FBF77BFD03460C46184621460CA331
:1047A000D3E90023FBF728FF03460C4625461C46A9
:1047B000154BD3E902012BE000000000000000408F
:1047C000FBEB1516DCA54C40FCA9F1D24D62503F25
:1047D0005C8FC2F5285CEF3F7B14AE47E17A943FD3
:1047E000E402002080020020D402002000C0CC445B
:1047F000400200203802002048020020000003434D
:1048000050020020580200206002002028020020F0
:104810000CA3D3E90023FBF7EFFE02460B4620462C
:104820002946FBF733FD03460C46054AC2E902342C
:1048300000BF0437BD46BDE8F08300BFAFF3008082
:10484000280200207B14AE47E17A943F000000006C
:10485000B0B582B000AF87ED000B54A3D3E90023BD
:10486000D7E90001FCF73AF90346002B04D04FA327
:10487000D3E90023C7E900234EA3D3E90023D7E9F6
:104880000001FCF749F90346002B04D049A3D3E902
:104890000023C7E90023404B00221A603F4B00224F
:1048A0001A604FF000024FF00003D7E90001FCF757
:1048B00033F90346002B06D0D7E90001FCF74CF989
:1048C0000246364B1A604FF000024FF00003D7E962
:1048D0000001FCF703F90346002B0AD03C687B6813
:1048E00023F0004520462946FCF736F902462A4BBC
:1048F0001A602A4B1B68002B21D0274B1B68002B0A
:104900001DD1264B1A68264B1B685A6301220121D0
:104910002448FCF757FE002202212248FCF752FEF1
:104920001E4B1A681E4B1B689A63002210211E48FA
:10493000FCF748FE012220211B48FCF743FE164BE2
:104940001B68002B21D0154B1B68002B1DD1124B6F
:104950001A68134B1B685A63002201211148FCF7A7
:1049600031FE012202210F48FCF72CFE0A4B1A6887
:104970000B4B1B689A63012210210B48FCF722FEA7
:10498000002220210848FCF71DFE00BF0837BD4665
:10499000B0BD00BFAFF30080100200201402002061
:1049A0002C0300200000024000080240000000002C
:1049B00000589BC00000000000589B4080B584B0A8
:1049C00000AF7860114B1B68002B02D10F4B104ACF
:1049D0001A600E4B1B68FB600C4B1A687B68134413
:1049E0006A46934207D900F049FA02460C23136045
:1049F0004FF0FF3306E0054B1A687B681344034A07
:104A00001360FB6818461037BD4680BD7002002059
:104A1000B003002080B400AF164BD3F88830154A9D
:104A200043F47003C2F88830134B1B68124A43F0FA
:104A300001031360104B00229A600F4B1B680E4A53
:104A400023F0847323F4803313600B4B0B4A5A60BA
:104A5000094B1B68084A23F480231360064B00228D
:104A6000DA60044B4FF000629A6000BFBD465DF80B
:104A7000047B704700ED00E0003802401030002455
:104A800080B592B000AF07F1400300221A605A606F
:104A900007F1240300221A605A609A60DA601A61F2
:104AA0005A619A613B1D20220021184600F010FA3D
:104AB000394B3A4A1A60384BB1225A60364B0022C1
:104AC0009A60354B4FF4E162DA60334B00221A6191
:104AD000314B00225A61304B00229A612E48FEF77A
:104AE0003AF90346002B01D0FFF714FC00233B6486
:104AF00000237B6407F1400319462748FEF75BFF5C
:104B00000346002B01D0FFF705FC60237B620023E6
:104B1000BB620023FB6200233B6300237B63002313
:104B2000BB630023FB6307F12403002219461A48E4
:104B3000FEF782FA0346002B01D0FFF7EBFB07F1EB
:104B40002403042219461448FEF776FA0346002B84
:104B500001D0FFF7DFFB00237B600023BB60002355
:104B6000FB6000233B6100237B614FF40053BB617A
:104B700000233B623B1D19460748FEF761FF0346D1
:104B8000002B01D0FFF7C6FB034800F0A1F800BFDF
:104B90004837BD4680BD00BF2C0300200000014007
:104BA00080B586B000AF07F1080300221A605A6092
:104BB0009A60DA603B4600221A605A601D4B1E4A1A
:104BC0001A601C4B40F23F625A601A4B00229A60F6
:104BD000184B6322DA60174B00221A61154B002232
:104BE0009A611448FEF768F80346002B01D0FFF7DE
:104BF00091FB4FF48053BB6007F1080319460D4841
:104C0000FEF7E0FA0346002B01D0FFF783FB0023F9
:104C10003B6000237B603B4619460648FEF7CBFE0F
:104C20000346002B01D0FFF775FB00BF1837BD46C8
:104C300080BD00BFEC0200200004004080B485B0BD
:104C400000AF78607B681B680B4A93420DD100234C
:104C5000FB600A4B5B6C094A43F001035364074B4A
:104C60005B6C03F00103FB60FB6800BF1437BD46BB
:104C70005DF8047B704700BF00000140003802402F
:104C800080B584B000AF78607B681B680E4A9342A1
:104C900015D10023FB600D4B1B6C0C4A43F0020343
:104CA00013640A4B1B6C03F00203FB60FB680022D9
:104CB00000211D20FCF7B5FA1D20FCF7CEFA00BF3D
:104CC0001037BD4680BD00BF0004004000380240E0
:104CD00080B588B000AF786007F10C0300221A603D
:104CE0005A609A60DA601A617B681B68124A9342C4
:104CF0001ED10023BB60114B1B6B104A43F0100305
:104D000013630E4B1B6B03F01003BB60BB684FF4C7
:104D10002063FB6002233B6100237B610023BB61B6
:104D20000123FB6107F10C0319460548FCF7B0FAB3
:104D300000BF2037BD4680BD000001400038024062
:104D40000010024080B500AF114B124A1A60104BA0
:104D50004FF4E1325A600E4B00229A600C4B002255
:104D6000DA600B4B00221A61094B0C225A61084B86
:104D700000229A61064B0022DA610548FEF7C6FE62
:104D80000346002B01D0FFF7C5FA00BF80BD00BF6E
:104D90006C0300200048004080B58AB000AF786006
:104DA00007F1140300221A605A609A60DA601A61EF
:104DB0007B681B68194A93422CD100233B61184B36
:104DC0001B6C174A43F480231364154B1B6C03F4CC
:104DD00080233B613B690023FB60114B1B6B104A36
:104DE00043F0020313630E4B1B6B03F00203FB60E3
:104DF000FB684FF440637B610223BB610123FB61CD
:104E000003233B6207237B6207F11403194605481D
:104E1000FCF73EFA00BF2837BD4680BD0048004081
:104E20000038024000040240DFF834D0002103E0E3
:104E30000C4B5B58435004310B480C4B42189A42C0
:104E4000F6D30B4A02E0002342F8043B094B9A4296
:104E5000F9D3FFF7DFFD00F017F8FFF7A7F9704768
:104E60000000022078A1000800000020E8010020D6
:104E7000E8010020B0030020FEE70000014B1868A5
:104E8000704700BF1400002070B50D4E0D4CA41BE0
:104E9000A4100025A54209D10B4E0C4C04F0A6FF2E
:104EA000A41BA4100025A54205D170BD56F82530DD
:104EB00098470135EEE756F8253098470135F2E777
:104EC00070A1000870A1000870A1000874A100087A
:104ED00002440346934200D1704703F8011BF9E7EF
:104EE0002DE9FF4755EC104B0D9FDDF830A0002D4C
:104EF0000E4691461946B8BF22462B4627F020079A
:104F0000BBBF05F100431D4600232D23B8BF144647
:104F1000462F0B7004D0452F00D10136022100E04E
:104F2000032103AB019302AB00933246534645EC99
:104F3000104B01F075FD472F804602D119F0010F8B
:104F400026D0462F08EB060911D198F80030302BF7
:104F50000AD10022002320462946FBF7B5FD18B9E7
:104F6000C6F10106CAF80060DAF800309944002260
:104F7000002320462946FBF7A7FD38B93022039BC2
:104F80004B4505D2591C03911A70F8E7CDF80C90E7
:104F9000039B0E9AA3EB08034046136004B0BDE8E0
:104FA000F087F7B500290446BABF49422D232B23C9
:104FB000092904F8022B437020DD0DF107031F4679
:104FC0000A2691FBF6F506FB15113031092D03F881
:104FD000011C03F1FF32294609DC3031023B02F8A3
:104FE000011CBB42224604D3101A03B0F0BD134685
:104FF000E7E713F8012B04F8012BF2E730231944FB
:105000008370021DC170EFE72DE9F04F8DB00C46A3
:10501000DDF8588016461F46054602F0E5FD036898
:1050200004931846FBF7D4F800230A93D8F800300D
:105030000590073323F0070303F1080294F818A042
:10504000D4F800B0C8F80020D3E90023C4E9122343
:10505000D4E9128929F000430793CDF818804FF066
:10506000FF32A74BDDE90601FBF760FD70BB4FF097
:10507000FF32A34BDDE90601FBF73AFD30BB00220E
:10508000002340464946FBF729FD10B12D2384F843
:1050900043309C4A9C4BBAF1470F8CBF90469846D0
:1050A00003232BF00402236122604FF000090097D4
:1050B00033460BAA2146284600F0E6F9013040F0BD
:1050C0008D804FF0FF300DB0BDE8F08F42464B466B
:1050D00040464946FBF72AFD10B18C4A8C4BDAE773
:1050E00061684B1C4BF480620AA83ED106236360C2
:1050F0000023CDE9020309AB009349EC108B0DF1BD
:1051000023032260CDF804A061682846FFF7E8FE7B
:105110000AF0DF03472B804609D1099BD81C02DB2C
:105120006268934247DDAAF1020A5FFA8AFABAF18D
:10513000650F099924D80139524604F150000991AC
:10514000FFF72FFF0A9A1318012A8146236102DC18
:105150002268D10701D5013323619DF82330002B4C
:10516000A5D02D2384F84330A1E7BAF1670F00F0F2
:105170007781BAF1470FBBD10029B9D10123B6E736
:10518000BAF1660F19D1002963680CDD216113B9EA
:105190002268D20702D501330B442361099BA36522
:1051A0004FF00009D9E713B92268D00701D50233BF
:1051B000F3E70123F1E74FF0670ADDE90932934293
:1051C00005DB22682361D107E8D50133E5E7002B31
:1051D000D4BFC3F1020301231344DEE723685A0559
:1051E00007D42369424631462846B84701302BD1BF
:1051F00067E7BAF1650F40F2DC8000220023D4E9B2
:105200001201FBF761FC002833D00123414A3146EB
:105210002846B84701303FF454AFDDE909239A42EC
:1052200002DB2368D8070FD5DDE904233146284681
:10523000B84701303FF445AF4FF0000804F11A09B8
:105240000A9B013B434509DC23689B0700F103816E
:10525000E0680B9B9842B8BF184634E701234A46E2
:1052600031462846B84701303FF42BAF08F101081A
:10527000E6E7099B002B2BDC0123264A3146284612
:10528000B84701303FF41DAF099B23B90A9B13B9FE
:105290002368D907D8D5DDE9042331462846B84725
:1052A00001303FF40EAF4FF0000904F11A0A099BD8
:1052B0005B424B4501DC0A9B94E701235246314691
:1052C0002846B84701303FF4FCAE09F10109EEE78A
:1052D0000A9AA36D9A42A8BF1A46002A914607DD92
:1052E0001346314642462846B84701303FF4E9AEFE
:1052F00004F11A034FF0000B29EAE979069315E04F
:10530000FFFFEF7F249E0008209E00082C9E0008CF
:10531000289E0008309E00080123069A3146284640
:10532000B84701303FF4CDAE0BF1010BD4F858A0D3
:10533000AAEB09035B45EFDCDDE909239A42D0447F
:1053400015DB2368DA0712D40A9B0999A3EB0A023A
:10535000A3EB010A9245A8BF9246BAF1000F0EDCFA
:105360004FF000082AEAEA7A04F11A0919E0DDE9A7
:10537000042331462846B8470130E5D1A1E653461B
:10538000424631462846B8470130E9D199E6012323
:105390004A4631462846B84701303FF492AE08F1FC
:1053A0000108DDE909239B1AA3EB0A034345EEDC60
:1053B0004AE70A9A012A01DCDB073AD50123424673
:1053C00031462846B84701303FF47BAEDDE904237F
:1053D00031462846B847013008F101083FF471AE64
:1053E0000A9B002203F1FF3AD4E912010023FBF7E4
:1053F0006BFBC8B95346424631462846B847013090
:105400000ED15EE60123524631462846B8470130A8
:105410003FF457AE08F101080A9B013B4345F1DC1C
:105420004B4604F15002DEE64FF0000804F11A0A80
:10543000F2E70123DFE701234A4631462846B84711
:1054400001303FF43EAE08F10108E3680B9A9B1A65
:105450004345F0DCFCE64FF0000804F11909F4E7DD
:1054600000293FF48BAE0023CDE9020309AB009382
:1054700049EC108B2260CDF804A00DF123032846DF
:10548000FFF72EFD804648E62DE9F04791461F467E
:105490008A680B69DDF820809342B8BF1346C9F8CB
:1054A000003091F8432006460C4612B10133C9F88A
:1054B00000302368990642BFD9F800300233C9F89A
:1054C0000030256815F0060507D104F1190AE368D4
:1054D000D9F800209B1AAB4228DC94F843302268AC
:1054E000003318BF012392062DD404F1430239463C
:1054F0003046C047013020D02368E568D9F8002045
:1055000003F00603042B08BFAD1AA36822690CBF81
:1055100025EAE57500259342C4BF9B1AED184FF0AC
:1055200000091A344D451AD1002008E001235246E3
:1055300039463046C047013003D14FF0FF30BDE857
:10554000F0870135C3E7E1185A1C302081F8430089
:10555000224494F8451082F843100233C5E7012332
:10556000224639463046C0470130E6D009F10109EC
:10557000D8E700002DE9F04301F1430C0C46097E09
:1055800085B06E291746064698460C9A00F0B380FF
:1055900022D8632936D00AD8002900F0B9805829CA
:1055A00000F0838004F1420584F8421032E064295F
:1055B00001D06929F6D120681368050603F10401BA
:1055C0002AD51B681160002B03DA2D225B4284F878
:1055D00043206F480A2239E0732900F09D8008D8E3
:1055E0006F2920D07029DDD1236843F02003236088
:1055F00003E0752917D07829D4D1782384F8453071
:10560000644855E01368191D1B68116004F14205D8
:1056100084F8423001238CE01B68116010F0400FC9
:1056200018BF1BB2CFE713682568181D1060280645
:1056300001D51B6802E06806FBD51B8854486F291A
:1056400014BF0A220822002184F843106568A5606F
:10565000002DC0F29580216821F004012160002B0B
:105660003DD1002D40F08E806546082A0BD123687D
:10567000DB0708D5236962689A42DEBF302305F84C
:10568000013C05F1FF35ACEB05032361CDF800804B
:105690003B4603AA21463046FFF7F6FE01304DD1C6
:1056A0004FF0FF3005B0BDE8F083394884F845106D
:1056B000136821681D1D1B6815600A060BD5CA07F3
:1056C00044BF41F0200121601BB9226822F0200272
:1056D00022601022B7E74D0648BF9BB2EFE7654650
:1056E000B3FBF2F102FB1133C35C05F8013D0B463D
:1056F0000029F5D1B9E7136825686169181D1060A4
:1057000028061B6801D5196002E06A06FBD51980DE
:10571000002323616546B9E71368191D11601D68F0
:10572000626800212846FAF75BFD08B1401B606003
:1057300063682361002384F84330A7E723692A467E
:1057400039463046C0470130AAD023689B0713D49E
:10575000E068039B9842B8BF1846A3E701234A4676
:1057600039463046C04701309AD00135E368039A84
:105770009B1AAB42F2DCEBE7002504F11909F5E7CF
:10578000002BACD1037884F8423004F142056CE779
:10579000329E0008439E00082DE9F04F9A468B6820
:1057A00016465A1EB2F5AE7F87B083BF6FF4AE7255
:1057B0009B180193002386BF40F25D138B60019319
:1057C0000B6888464FF0000B43F4F06348F81C3B2D
:1057D000CDE903BB07460C4645465A46D946CDF8A7
:1057E00008B0A16881B133681B78492B71D04DD8BE
:1057F000392B40D8312B80F088802D2B00F0908001
:1058000015D82B2B00F08C80B9F1000F03D0236842
:1058100023F480732360013A012A00F2EA804545AF
:1058200000F2DC800126304607B0BDE8F08F2E2B59
:1058300000F09F80302BE7D1206810F4807F64D087
:10584000019B20F08000206009F101091BB1013BA0
:1058500001310193A160A368013BA3602369013377
:1058600023617368013B002B736040F3AC803368A5
:1058700001333360B5E7452B00F08580462B6AD0B5
:10588000412BC1D1012ABFD1022246E0652B7AD03B
:1058900018D8542B66D011D84E2BB5D1002A46D13A
:1058A000B9F1000F45D1216801F4E060B0F5E06F77
:1058B0003FD121F4F061216001222EE0592B1ED04E
:1058C000612BDEE76E2BE9D015D8662B43D0692B10
:1058D0009AD1BBF1000F38D1B9F1000F97D12168EF
:1058E00001F4E060B0F5E06F95D121F4F061216042
:1058F0004FF0010B11E0742B34D0792B84D1BBF124
:10590000070F81D14FF0080B07E012EB0B0F7FF46C
:105910007BAF216821F4C07121602B7001359AE7BB
:10592000216808067FF570AF21F08001F4E7022AB4
:1059300047D0BBF1010F03D0BBF1040F7FF464AF7C
:105940000BF1010B5FFA8BFBE7E7BBF1030FF7D01D
:10595000BBF1050FF2E7BBF1020F7FF455AF4FF03B
:10596000030BDAE7BBF1060F7FF44EAF4FF0070BE6
:10597000D3E7216888057FF547AF21F420712160C6
:10598000CDF80890C9E7216801F4A060B0F5806FF8
:1059900006D048057FF538AFB9F1000F3FF43BAFB3
:1059A000880558BF029821F4F06158BFA9EB0000A8
:1059B00041F4C07158BFCDE9030521604FF00009E3
:1059C000ABE70322A9E7D4F8803105923146384687
:1059D0009847059A00283FF404AF15E7D4F87C31C6
:1059E00015F8011D3246384698472369013B23616B
:1059F00015E70BF1FF33062B0AD8BBF1020F68D96C
:105A0000ABF1030B5FFA8BFBA5EB0B0B5D454BD1A9
:105A10002368DA051FD55B0568D415F8011C2369D6
:105A2000652903F1FF3305F1FF3B23610DD04529C3
:105A30000BD0D4F87C31324638469847236915F8A4
:105A4000021C013BA5F1020B2361D4F87C313246E4
:105A5000384698475D46266816F010067AD12E70B3
:105A6000236803F4C063B3F5806F42D1029BA9EBB6
:105A700003035A42002B49D100224146384600F028
:105A8000A3FE2568DAF8003015F0020F03F10402D6
:105A900059EC108BCAF8002043D01B68C3E9008979
:105AA000E3680133E360BEE6D4F87C3115F8011DEC
:105AB0003246384698472369013B2361A6E7D4F86C
:105AC0007C3115F8011D3246384698472369013B61
:105AD00023614545F3D8A5E6D4F87C3115F8011DBE
