:020000040800F2
:100000000000022015280008F52600080327000834
:10001000092700080F270008152700080000000026
:100020000000000000000000000000001B27000886
:10003000292700080000000037270008452700088E
:10004000652800086528000865280008652800085C
:10005000652800086528000865280008652800084C
:10006000652800086528000865280008652800083C
:10007000652800086528000865280008652800082C
:10008000652800086528000865280008652800081C
:10009000652800086528000865280008652800080C
:1000A00065280008652800086528000865280008FC
:1000B00065280008652800086528000865280008EC
:1000C00065280008652800086528000865280008DC
:1000D00065280008652800086528000865280008CC
:1000E00065280008652800086528000865280008BC
:1000F00065280008652800086528000865280008AC
:10010000652800086528000865280008652800089B
:10011000652800086528000865280008652800088B
:10012000652800086528000865280008652800087B
:10013000652800086528000865280008652800086B
:10014000652800086528000865280008652800085B
:10015000652800086528000865280008652800084B
:10016000652800086528000865280008652800083B
:1001700065280008652800086528000800000000C0
:0801800065280008652800084D
:1001900010B5054C237833B9044B13B10448AFF3C1
:1001A00000800123237010BD7000002000000000BB
:1001B0000C3A000808B5034B1BB103490348AFF3E1
:1001C000008008BD00000000740000200C3A000808
:1001D00001F0FF01102A2BDB10F0070F08D010F8F8
:1001E000013B013A8B422DD010F0070F42B3F6D1FC
:1001F000F0B441EA012141EA014122F007047FF015
:1002000000070023F0E80256083C85EA010586EA6B
:10021000010685FA47F5A3FA87F586FA47F6A5FAA7
:1002200087F68EB9EED1F0BC01F0FF0102F00702B3
:1002300032B110F8013B013A83EA010313B1F8D15E
:100240000020704701387047002D06BF354603383F
:10025000073815F0010F07D1013015F4807F02BF78
:10026000013015F4C03F0130F0BC0138704700BFC9
:1002700053B94AB9002908BF00281CBF4FF0FF310D
:100280004FF0FF3000F072B9ADF1080C6DE904CE0B
:1002900000F006F8DDF804E0DDE9022304B0704761
:1002A0002DE9F047089E04468846002B4BD18A4230
:1002B000154667D9B2FA82F24AB1C2F1200701FAB3
:1002C00002F320FA07F7954047EA030894404FEA03
:1002D000154E230CB8FBFEF71FFA85FC0EFB1788A2
:1002E00043EA084307FB0CF1994209D9EB1807F1DF
:1002F000FF3080F01B81994240F21881023F2B446D
:100300005B1AA4B2B3FBFEF00EFB103344EA0344C5
:1003100000FB0CFCA44509D92C1900F1FF3380F037
:100320000781A44540F2048102382C4440EA07408A
:10033000A4EB0C0400271EB1D4400023C6E90043FF
:100340003946BDE8F0878B4209D9002E00F0EB80DA
:100350000027C6E9000138463946BDE8F087B3FA00
:1003600083F7002F47D18B4202D3824200F2FA80FA
:10037000841A61EB030301209846002EE0D0C6E901
:100380000048DDE702B9FFDEB2FA82F2002A40F04F
:100390008F80491B4FEA154E1FFA85F80127B1FBE4
:1003A000FEFC230C0EFB1C1143EA014308FB0CF17D
:1003B000994207D9EB180CF1FF3002D2994200F2B2
:1003C000CD808446591AA3B2B1FBFEF00EFB101487
:1003D00043EA044408FB00F8A04507D92C1900F1B2
:1003E000FF3302D2A04500F2B6801846A4EB080401
:1003F00040EA0C409FE7C7F1200CBB4022FA0CFEFC
:100400004EEA030E01FA07F420FA0CF521FA0CF378
:100410004FEA1E482543B3FBF8F92C0C08FB1933AF
:100420001FFA8EFA44EA034309FB0AF49C4202FADB
:1004300007F200FA07F10BD91EEB030309F1FF30B5
:1004400080F087809C4240F28480A9F102097344C5
:100450001B1BADB2B3FBF8F008FB103345EA0344B5
:1004600000FB0AFAA24508D91EEB040400F1FF3391
:100470006BD2A24569D90238744440EA0940A0FB16
:100480000289A4EB0A044C45C2464B4654D351D0D2
:10049000002E69D0B1EB0A0564EB030404FA0CFCEE
:1004A000FD40FC404CEA0505C6E90054002747E73B
:1004B000C2F1200320FA03F7954001FA02F021FA75
:1004C00003F34FEA154E3843010CB3FBFEF71FFA56
:1004D00085F80EFB173341EA034107FB08F38B4213
:1004E00004FA02F407D9691807F1FF3C2FD28B42B6
:1004F0002DD9023F2944CB1A81B2B3FBFEF00EFB8B
:10050000103341EA034100FB08F38B4207D9691815
:1005100000F1FF3C17D28B4215D902382944C91A81
:1005200040EA07473BE73746304609E70746E7E634
:100530001846FBE64145ABD2B8EB020A69EB0E0266
:1005400001381346A4E76046E9E7184695E7674691
:10055000D1E781467CE702382C4447E7ACF1020C36
:100560002B442FE7384608E73746E9E6704700BFD7
:1005700080B500AF0E4B1B680D4A43F40073136047
:100580000B4B1B680A4A43F480631360084B1B68DB
:10059000074A43F480731360032000F065FC0020D9
:1005A00000F008F802F07EF80023184680BD00BF76
:1005B000003C024080B582B000AF7860124B1A68F0
:1005C000124B1B7819464FF47A73B3FBF1F3B2FB6D
:1005D000F3F3184600F06FFC0346002B01D0012313
:1005E0000EE07B680F2B0AD8002279684FF0FF30AD
:1005F00000F045FC064A7B681360002300E00123FD
:1006000018460837BD4680BD0800002004000020C1
:100610000000002080B400AF064B1B781A46064B42
:100620001B681344044A136000BFBD465DF8047B99
:10063000704700BF040000209C00002080B400AF81
:10064000034B1B681846BD465DF8047B704700BF2E
:100650009C00002080B584B000AF7860FFF7EEFF0B
:10066000B8607B68FB60FB68B3F1FF3F05D0094BC6
:100670001B781A46FB681344FB6000BFFFF7DEFFE0
:100680000246BB68D31AFA689A42F7D800BF1037FF
:10069000BD4680BD0400002080B584B000AF786006
:1006A0000023FB737B68002B01D1012333E07B68BF
:1006B0001B6C002B09D1786801F03AFD7B680022A1
:1006C0005A647B68002283F83C207B681B6C03F033
:1006D0001003002B18D17B681B6C23F4885323F084
:1006E000020343F002027B681A64786800F00EFA95
:1006F0007B6800225A647B681B6C23F0030343F081
:1007000001027B681A6401E00123FB737B6800220D
:1007100083F83C20FB7B18461037BD4680BD0000A7
:1007200080B485B000AF78600023BB607B6893F82D
:100730003C30012B01D10223A5E07B68012283F824
:100740003C207B681B689B6803F00103012B18D0D9
:100750007B681B689A687B681B6842F001029A609C
:100760004C4B1B684C4AA2FB03239A0C13465B00BC
:100770001344BB6002E0BB68013BBB60BB68002B5D
:10078000F9D17B681B689B6803F00103012B79D1C9
:100790007B681B6C23F4E06323F0010343F4807255
:1007A0007B681A647B681B685B6803F48063002BBA
:1007B00007D07B681B6C23F4405343F480527B6862
:1007C0001A647B681B6C03F48053B3F5805F06D119
:1007D0007B685B6C23F006027B685A6402E07B68EE
:1007E00000225A647B68002283F83C202B4BFB607C
:1007F0007B681B686FF022021A60FB685B6803F07D
:100800001F03002B2AD17B681B68254A934215D011
:100810007B681B68234A934205D1204B5B6803F039
:100820001F03002B0AD07B681B681F4A934229D103
:100830001A4B5B6803F01F030F2B23D87B681B68E0
:100840009B6803F04053002B1CD17B681B689A689F
:100850007B681B6842F080429A6013E07B681B68EB
:100860000F4A93420ED17B681B689B6803F040538C
:10087000002B07D17B681B689A687B681B6842F075
:1008800080429A60002318461437BD465DF8047B09
:10089000704700BF0800002083DE1B430023014097
:1008A00000200140002101400022014080B483B0BB
:1008B00000AF78607B681B68DB6C18460C37BD4660
:1008C0005DF8047B7047000080B485B000AF7860AD
:1008D00039600023BB607B6893F83C30012B01D169
:1008E000022305E17B68012283F83C203B681B68FA
:1008F000092B25D97B681B68D9683B681B689BB2AC
:100900001A4613465B0013441E3B072202FA03F308
:10091000DA437B681B680A40DA607B681B68D96829
:100920003B689A683B681B689BB2184603465B00AD
:1009300003441E3B9A407B681B680A43DA6022E04E
:100940007B681B6819693B681B689BB21A46134693
:100950005B001344072202FA03F3DA437B681B6847
:100960000A401A617B681B6819693B689A683B6892
:100970001B689BB2184603465B0003449A407B68A1
:100980001B680A431A613B685B68062B24D87B68A6
:100990001B68596B3B685A6813469B001344053B20
:1009A0001F2202FA03F3DA437B681B680A405A638A
:1009B0007B681B68596B3B681B689BB218463B6899
:1009C0005A6813469B001344053B00FA03F27B6808
:1009D0001B680A435A634CE03B685B680C2B24D8C5
:1009E0007B681B68196B3B685A6813469B0013446D
:1009F000233B1F2202FA03F3DA437B681B680A4099
:100A00001A637B681B68196B3B681B689BB21846AE
:100A10003B685A6813469B001344233B00FA03F2D9
:100A20007B681B680A431A6323E07B681B68D96AEA
:100A30003B685A6813469B001344413B1F2202FA4D
:100A400003F3DA437B681B680A40DA627B681B6841
:100A5000D96A3B681B689BB218463B685A681346C4
:100A60009B001344413B00FA03F27B681B680A4376
:100A7000DA62224BFB607B681B68214A934209D1F2
:100A80003B681B68122B05D1FB685B6843F480024E
:100A9000FB685A607B681B68194A934223D13B6804
:100AA0001B68102B03D03B681B68112B1BD1FB6804
:100AB0005B6843F40002FB685A603B681B68102BBC
:100AC00011D1104B1B68104AA2FB03239A0C13464A
:100AD0009B0013445B00BB6002E0BB68013BBB6052
:100AE000BB68002BF9D17B68002283F83C200023EF
:100AF00018461437BD465DF8047B7047002301405B
:100B0000002001400800002083DE1B4380B485B034
:100B100000AF7860794BFB60FB685B6823F4403280
:100B2000FB685A60FB685A687B685B681A43FB681D
:100B30005A607B681B685A687B681B6822F4807265
:100B40005A607B681B6859687B681B691A027B685E
:100B50001B680A435A607B681B685A687B681B687D
:100B600022F040725A607B681B6859687B689A68FB
:100B70007B681B680A435A607B681B689A687B68BD
:100B80001B6822F400629A607B681B6899687B6826
:100B9000DA687B681B680A439A607B689B6A584ADC
:100BA000934222D07B681B689A687B681B6822F09E
:100BB00070629A607B681B6899687B689A6A7B6838
:100BC0001B680A439A607B681B689A687B681B688D
:100BD00022F040529A607B681B6899687B68DA6AE9
:100BE0007B681B680A439A600FE07B681B689A6801
:100BF0007B681B6822F070629A607B681B689A6849
:100C00007B681B6822F040529A607B681B689A6878
:100C10007B681B6822F002029A607B681B689968F7
:100C20007B681B7E5A007B681B680A439A607B685E
:100C300093F82030002B1BD07B681B685A687B68B8
:100C40001B6842F400625A607B681B685A687B68C4
:100C50001B6822F460425A607B681B6859687B6895
:100C60005B6A013B5A037B681B680A435A6007E0D2
:100C70007B681B685A687B681B6822F400625A60B4
:100C80007B681B68DA6A7B681B6822F47002DA6290
:100C90007B681B68D96A7B68DB69013B1A057B6846
:100CA0001B680A43DA627B681B689A687B681B686A
:100CB00022F400729A607B681B6899687B6893F8DD
:100CC00030305A027B681B680A439A607B681B6855
:100CD0009A687B681B6822F480629A607B681B6854
:100CE00099687B685B699A027B681B680A439A6013
:100CF00000BF1437BD465DF8047B704700230140F8
:100D00000100000F80B485B000AF78607B6803F00D
:100D10000703FB600C4BDB68BB60BA684FF6FF0350
:100D20001340BB60FB681A02BB68134343F0BF6308
:100D300043F40033BB60044ABB68D36000BF143780
:100D4000BD465DF8047B704700ED00E080B400AF65
:100D5000044BDB681B0A03F007031846BD465DF829
:100D6000047B704700ED00E080B483B000AF034621
:100D70003960FB7197F90730002B0ADB3B68DAB268
:100D80000C4997F907301201D2B20B4483F80023C3
:100D90000AE03B68DAB20849FB7903F00F03043B31
:100DA0001201D2B20B441A7600BF0C37BD465DF873
:100DB000047B704700E100E000ED00E080B489B002
:100DC00000AFF860B9607A60FB6803F00703FB616D
:100DD000FB69C3F10703042B28BF0423BB61FB6934
:100DE0000433062B02D9FB69033B00E000237B613F
:100DF0004FF0FF32BB6902FA03F3DA43BB681A40D3
:100E00007B699A404FF0FF317B6901FA03F3D943C4
:100E10007B680B40134318462437BD465DF8047BBE
:100E20007047000080B582B000AF78607B68013BFE
:100E3000B3F1807F01D301230FE00A4A7B68013BB5
:100E400053600F214FF0FF30FFF78EFF054B00225C
:100E50009A60044B07221A60002318460837BD46E3
:100E600080BD00BF10E000E080B582B000AF7860C8
:100E70007868FFF747FF00BF0837BD4680BD80B5E3
:100E800086B000AF0346B9607A60FB7300237B61D4
:100E9000FFF75CFF78617A68B9687869FFF78EFFC1
:100EA000024697F90F3011461846FFF75DFF00BF65
:100EB0001837BD4680BD80B582B000AF78607868D5
:100EC000FFF7B0FF034618460837BD4680BD000057
:100ED00080B489B000AF7860396000237B61002363
:100EE0003B610023BB610023FB616BE10122FB69D5
:100EF00002FA03F37B613B681B687A6913403B612C
:100F00003A697B699A4240F05A813B685B68022BE0
:100F100003D03B685B68122B23D1FB69DA087B683E
:100F2000083253F82230BB61FB6903F007039B00D2
:100F30000F2202FA03F3DB43BA691340BB613B683B
:100F40001A69FB6903F007039B0002FA03F3BA690D
:100F50001343BB61FB69DA087B680832B96943F85F
:100F600022107B681B68BB61FB695B00032202FAED
:100F700003F3DB43BA691340BB613B685B6803F072
:100F80000302FB695B0002FA03F3BA691343BB6116
:100F90007B68BA691A603B685B68012B0BD03B68C1
:100FA0005B68022B07D03B685B68112B03D03B6862
:100FB0005B68122B30D17B689B68BB61FB695B006F
:100FC000032202FA03F3DB43BA691340BB613B68B7
:100FD000DA68FB695B0002FA03F3BA691343BB6189
:100FE0007B68BA699A607B685B68BB610122FB69B8
:100FF00002FA03F3DB43BA691340BB613B685B68E9
:101000001B0903F00102FB6902FA03F3BA691343F7
:10101000BB617B68BA695A607B68DB68BB61FB694E
:101020005B00032202FA03F3DB43BA691340BB619E
:101030003B689A68FB695B0002FA03F3BA691343E1
:10104000BB617B68BA69DA603B685B6803F0805318
:10105000002B00F0B4800023FB605F4B5B6C5E4AAA
:1010600043F4804353645C4B5B6C03F48043FB604C
:10107000FB685A4AFB699B08023352F82330BB6174
:10108000FB6903F003039B000F2202FA03F3DB4327
:10109000BA691340BB617B68514A93422BD07B688D
:1010A000504A934225D07B684F4A93421FD07B68B9
:1010B0004E4A934219D07B684D4A934213D07B68C5
:1010C0004C4A93420DD07B684B4A934207D07B68D1
:1010D0004A4A934201D107230EE008230CE006237D
:1010E0000AE0052308E0042306E0032304E00223CA
:1010F00002E0012300E00023FA6902F003029200FB
:101100009340BA691343BB613449FB699B080233BE
:10111000BA6941F823203A4B1B68BB613B69DB434A
:10112000BA691340BB613B685B6803F48033002BF2
:1011300003D0BA693B691343BB61314ABB69136091
:101140002F4B5B68BB613B69DB43BA691340BB61F2
:101150003B685B6803F40033002B03D0BA693B693A
:101160001343BB61264ABB695360254B9B68BB6137
:101170003B69DB43BA691340BB613B685B6803F4BE
:101180008013002B03D0BA693B691343BB611C4A2F
:10119000BB6993601A4BDB68BB613B69DB43BA698F
:1011A0001340BB613B685B6803F40013002B03D062
:1011B000BA693B691343BB61114ABB69D360FB69E0
:1011C0000133FB61FB690F2B7FF690AE00BF243724
:1011D000BD465DF8047B704700380240003801408E
:1011E000000002400004024000080240000C0240DF
:1011F000001002400014024000180240001C02408F
:10120000003C014080B483B000AF78600B467B8027
:1012100013467B707B78002B03D07A887B689A61B9
:1012200003E07B881A047B689A6100BF0C37BD46D7
:101230005DF8047B7047000080B586B000AF786031
:101240007B68002B01D101232DE27B681B6803F032
:101250000103002B75D0A34B9B6803F00C03042BF8
:101260000CD0A04B9B6803F00C03082B12D19D4BB4
:101270005B6803F48003B3F5800F0BD1994B1B68B7
:1012800003F40033002B5BD07B685B68002B57D1E5
:10129000012308E27B685B68B3F5803F06D1914B80
:1012A0001B68904A43F4803313601DE07B685B68E1
:1012B000B3F5A02F0CD18B4B1B688A4A43F48023D3
:1012C0001360884B1B68874A43F4803313600BE03C
:1012D000844B1B68834A23F480331360814B1B6863
:1012E000804A23F4802313607B685B68002B13D053
:1012F000FFF7A4F9386108E0FFF7A0F902463B695F
:10130000D31A642B01D90323CDE1764B1B6803F478
:101310000033002BF0D014E0FFF790F9386108E0BB
:10132000FFF78CF902463B69D31A642B01D90323DA
:10133000B9E16C4B1B6803F40033002BF0D100E0E3
:1013400000BF7B681B6803F00203002B63D0654B72
:101350009B6803F00C03002B0BD0624B9B6803F0DF
:101360000C03082B1CD15F4B5B6803F48003002B3C
:1013700016D15C4B1B6803F00203002B05D07B6881
:10138000DB68012B01D001238DE1564B1B6823F054
:10139000F8027B681B69DB00524913430B603AE09B
:1013A0007B68DB68002B20D04F4B01221A60FFF7CF
:1013B00045F9386108E0FFF741F902463B69D31A65
:1013C000022B01D903236EE1464B1B6803F0020395
:1013D000002BF0D0434B1B6823F0F8027B681B699D
:1013E000DB00404913430B6015E03F4B00221A60BD
:1013F000FFF724F9386108E0FFF720F902463B695E
:10140000D31A022B01D903234DE1364B1B6803F09D
:101410000203002BF0D17B681B6803F00803002B4C
:1014200030D07B685B69002B16D0304B01221A60EC
:10143000FFF704F9386108E0FFF700F902463B695D
:10144000D31A022B01D903232DE1264B5B6F03F046
:101450000203002BF0D015E0244B00221A60FFF7A6
:10146000EDF8386108E0FFF7E9F802463B69D31A66
:10147000022B01D9032316E11A4B5B6F03F0020321
:10148000002BF0D17B681B6803F00403002B00F0F5
:10149000A0800023FB75134B1B6C03F08053002BC3
:1014A0000FD10023FB600F4B1B6C0E4A43F080539F
:1014B00013640C4B1B6C03F08053FB60FB6801232F
:1014C000FB750B4B1B6803F48073002B21D1084B79
:1014D0001B68074A43F480731360FFF7AFF8386165
:1014E00011E000BF0038024000004742800E474232
:1014F00000700040FFF7A2F802463B69D31A022BA6
:1015000001D90323CFE06A4B1B6803F48073002BDF
:10151000F0D07B689B68012B06D1664B1B6F654A38
:1015200043F0010313671CE07B689B68052B0CD11B
:10153000604B1B6F5F4A43F0040313675D4B1B6FE7
:101540005C4A43F0010313670BE05A4B1B6F594A87
:1015500023F001031367574B1B6F564A23F0040314
:1015600013677B689B68002B15D0FFF767F838611D
:101570000AE0FFF763F802463B69D31A41F288326A
:10158000934201D903238EE04A4B1B6F03F0020301
:10159000002BEED014E0FFF751F838610AE0FFF7B6
:1015A0004DF802463B69D31A41F28832934201D981
:1015B000032378E03F4B1B6F03F00203002BEED1B7
:1015C000FB7D012B05D13B4B1B6C3A4A23F080532A
:1015D00013647B689B69002B64D0364B9B6803F0D7
:1015E0000C03082B5CD07B689B69022B41D1324BEA
:1015F00000221A60FFF722F8386108E0FFF71EF8B2
:1016000002463B69D31A022B01D903234BE0294B35
:101610001B6803F00073002BF0D17B68DA697B68EC
:101620001B6A1A437B685B6A9B011A437B689B6A4F
:101630005B08013B1B041A437B68DB6A1B061D49E0
:1016400013434B601C4B01221A60FEF7F7FF386111
:1016500008E0FEF7F3FF02463B69D31A022B01D9DB
:10166000032320E0134B1B6803F00073002BF0D022
:1016700018E0114B00221A60FEF7E0FF386108E025
:10168000FEF7DCFF02463B69D31A022B01D9032384
:1016900009E0084B1B6803F00073002BF0D101E058
:1016A000012300E0002318461837BD4680BD00BF67
:1016B00000700040003802406000474280B584B0AE
:1016C00000AF786039607B68002B01D10123CAE04C
:1016D000674B1B6803F00F033A689A420CD9644BBE
:1016E0003A68D2B21A70624B1B6803F00F033A6873
:1016F0009A4201D00123B6E07B681B6803F0020325
:10170000002B20D07B681B6803F00403002B05D05E
:10171000584B9B68574A43F4E05393607B681B68BF
:1017200003F00803002B05D0524B9B68514A43F449
:10173000604393604F4B9B6823F0F0027B689B688B
:101740004C4913438B607B681B6803F00103002B3B
:1017500044D07B685B68012B07D1464B1B6803F4C0
:101760000033002B19D101237DE07B685B68022BDD
:1017700003D07B685B68032B07D13E4B1B6803F0EB
:101780000073002B09D101236DE03A4B1B6803F075
:101790000203002B01D1012365E0364B9B6823F047
:1017A00003027B685B68334913438B60FEF746FF97
:1017B000F8600AE0FEF742FF0246FB68D31A41F2E6
:1017C0008832934201D903234DE02A4B9B6803F0F2
:1017D0000C027B685B689B009A42EBD1244B1B6830
:1017E00003F00F033A689A420CD2214B3A68D2B206
:1017F0001A701F4B1B6803F00F033A689A4201D01E
:10180000012330E07B681B6803F00403002B08D041
:10181000184B9B6823F4E0527B68DB68154913433F
:101820008B607B681B6803F00803002B09D0114B09
:101830009B6823F460427B681B69DB000D491343FE
:101840008B6000F01DF801460A4B9B681B0903F0F2
:101850000F03094AD35C21FA03F3084A13600020FE
:10186000FEF7A8FE002318461037BD4680BD00BF16
:10187000003C0240003802404C3A000808000020BA
:10188000F0B585B000AF00237B600023FB60002330
:101890003B600023BB60504B9B6803F00C03042BA0
:1018A00007D0082B08D0002B40F08D804B4BBB603D
:1018B0008CE04B4BBB6089E0474B5B6803F03F0318
:1018C0007B60454B5B6803F48003002B23D0424BC5
:1018D0005B689B094FF0000440F2FF114FF00002DB
:1018E00003EA010504EA02063D4A02FB06F1002272
:1018F00002FB05F20A443A49A5FB010153181946B7
:101900007B684FF000041A462346FEF7B1FC0346FD
:101910000C46FB6049E0304B5B689B094FF00004CC
:1019200040F2FF114FF0000203EA010504EA02064B
:10193000294632464FF000034FF00004540144EAB8
:10194000D1644B0119462246491B62EB06024FF057
:1019500000034FF00004940144EA91648B015B1A88
:1019600064EB02044FF000014FF00002E20042EA93
:101970005372D9000B4614465B1944EB06044FF032
:1019800000014FF00002A20242EA935299020B4674
:101990001446184621467B684FF000041A46234639
:1019A000FEF766FC03460C46FB600B4B5B681B0CAA
:1019B00003F0030301335B003B60FA683B68B2FB52
:1019C000F3F3BB6002E0054BBB6000BFBB68184689
:1019D0001437BD46F0BD00BF003802400024F400BB
:1019E00040787D0180B582B000AF78607B68002BC5
:1019F00001D1012356E07B6800229A627B6893F84C
:101A00005130DBB2002B06D17B68002283F85020D6
:101A1000786800F0FFFD7B68022283F851207B6824
:101A20001B681A687B681B6822F040021A607B689A
:101A30005A687B689B681A437B68DB681A437B683B
:101A40001B691A437B685B691A437B689B6903F4D3
:101A500000731A437B68DB691A437B681B6A42EA9E
:101A600003017B689A6A7B681B680A431A607B687B
:101A70009B691B0C03F004017B685A6A7B681B6836
:101A80000A435A607B681B68DA697B681B6822F42A
:101A90000062DA617B6800225A657B68012283F864
:101AA0005120002318460837BD4680BD80B588B058
:101AB00000AFF860B9603B601346FB800023FB7702
:101AC000FB6893F85030012B01D102231EE1FB6823
:101AD000012283F85020FEF7B1FDB861FB88FB823C
:101AE000FB6893F85130DBB2012B02D00223FB7765
:101AF00003E1BB68002B02D0FB88002B02D101233D
:101B0000FB77FAE0FB68032283F85120FB68002290
:101B10005A65FB68BA681A63FB68FA889A86FB689C
:101B2000FA88DA86FB6800229A63FB6800229A87AB
:101B3000FB680022DA87FB6800225A64FB680022F7
:101B40001A64FB689B68B3F5004F07D1FB681B68FC
:101B50001A68FB681B6842F480421A60FB681B68C5
:101B60001B6803F04003402B07D0FB681B681A6812
:101B7000FB681B6842F040021A60FB68DB68B3F543
:101B8000006F4BD1FB685B68002B02D0FB8A012BF6
:101B90003ED1FB681B6B1A88FB681B68DA60FB6828
:101BA0001B6B9A1CFB681A63FB68DB8E9BB2013BC4
:101BB0009AB2FB68DA862BE0FB681B689B6803F02F
:101BC0000203022B12D1FB681B6B1A88FB681B688F
:101BD000DA60FB681B6B9A1CFB681A63FB68DB8E80
:101BE0009BB2013B9AB2FB68DA8611E0FEF726FD54
:101BF0000246BB69D31A3A689A4203D83B68B3F1EC
:101C0000FF3F02D13B68002B02D10323FB7774E036
:101C1000FB68DB8E9BB2002BCED14CE0FB685B688F
:101C2000002B02D0FB8A012B40D1FB681A6BFB68AA
:101C30001B680C3312781A70FB681B6B5A1CFB680C
:101C40001A63FB68DB8E9BB2013B9AB2FB68DA86B3
:101C50002CE0FB681B689B6803F00203022B13D186
:101C6000FB681A6BFB681B680C3312781A70FB68F0
:101C70001B6B5A1CFB681A63FB68DB8E9BB2013B33
:101C80009AB2FB68DA8611E0FEF7D8FC0246BB691F
:101C9000D31A3A689A4203D83B68B3F1FF3F02D1A6
:101CA0003B68002B02D10323FB7726E0FB68DB8E29
:101CB0009BB2002BCDD1BA693968F86800F094F86E
:101CC0000346002B02D0FB6820225A65FB689B6804
:101CD000002B0AD100233B61FB681B68DB683B617A
:101CE000FB681B689B683B613B69FB685B6D002B75
:101CF00002D00123FB7700E000BFFB68012283F8DC
:101D00005120FB68002283F85020FB7F18462037C3
:101D1000BD4680BD80B584B000AFF860B9603B605F
:101D20001346FB714CE03B68B3F1FF3F48D0FEF730
:101D300085FC0246BB69D31A3A689A4202D93B68CD
:101D4000002B3DD1FB681B685A68FB681B6822F0BA
:101D5000E0025A60FB685B68B3F5827F11D1FB68D3
:101D60009B68B3F5004F04D0FB689B68B3F5806FA8
:101D700007D1FB681B681A68FB681B6822F04002E9
:101D80001A60FB689B6AB3F5005F0FD1FB681B68A4
:101D90001A68FB681B6822F400521A60FB681B6813
:101DA0001A68FB681B6842F400521A60FB68012243
:101DB00083F85120FB68002283F8502003230FE0B2
:101DC000FB681B689A68BB681340BA689A420CBFEC
:101DD00001230023DBB21A46FB799A42A3D10023E8
:101DE00018461037BD4680BD80B588B002AFF86098
:101DF000B9607A601B4B1B681B4AA2FB03235B0D77
:101E00004FF47A7202FB03F37B61FB685B68B3F506
:101E1000827F12D17B680093BB6800228021F86822
:101E2000FFF778FF0346002B16D0FB685B6D43F08D
:101E30002002FB685A6503230FE07B69002B0AD060
:101E40007B69013B7B61FB681B689B6803F0800337
:101E5000802BF2D000E000BF002318461837BD46A3
:101E600080BD00BF08000020819F5E1680B582B053
:101E700000AF786039603B689AB24FF0FF33796801
:101E80000348FFF713FE002318460837BD4680BD00
:101E9000CC00002080B582B000AF0346FB71FB7917
:101EA000002B06D100224FF400410948FFF7AAF9A0
:101EB00008E0FB79012B05D101224FF400410448D1
:101EC000FFF7A0F9002318460837BD4680BD00BFC4
:101ED0000000024080B582B000AF0346FB71FB7981
:101EE000002B05D1002240210848FFF78BF907E0BD
:101EF000FB79012B04D1012240210448FFF782F92C
:101F0000002318460837BD4680BD00BF000C0240C4
:101F100080B582B000AF0346FB71FB79002B05D181
:101F2000002280210848FFF76DF907E0FB79012BBB
:101F300004D1012280210448FFF764F900231846E8
:101F40000837BD4680BD00BF000C024080B582B09E
:101F500000AF0346FB71FB79002B05D100228021E5
:101F60000848FFF74FF907E0FB79012B04D1012264
:101F700080210448FFF746F9002318460837BD467C
:101F800080BD00BF0000024080B582B000AF786025
:101F90007868FEF75FFB002318460837BD4680BD12
:101FA00080B582B000AF0346FB710D4B0D4A1A613C
:101FB0000B4B0D4A1A600A4B0C4A5A60084B0C4AEC
:101FC000DA60074B0B4A9A60054800F0DBFDFB79AD
:101FD000184600F049FC002318460837BD4680BD6E
:101FE000A0000020891F00086D1E0008951E000833
:101FF000111F0008D51E000880B584B000AFBA607C
:102000007B600346FB730B46BB730B4AFB7B137071
:10201000094ABB7B5370084ABB68D360064A7B6899
:102020005360054ABB699360034800F0E1FD00235B
:1020300018461037BD4680BDB400002090B583B06F
:1020400000AF0446084611461A462346FB71034674
:10205000BB710B467B7113463B710B4AFB791370C6
:10206000094ABB795370084A7B799370064A3B79D9
:10207000D370054ABB695360034800F0DFFD0023BD
:1020800018460C37BD4690BDC400002080B584B012
:1020900000AF3B4600221A605A609A60DA60214B1A
:1020A000214A1A601F4B00225A601E4B4FF080726B
:1020B0009A601C4B00221A611A4B01221A76194BA6
:1020C000002283F82020174B0022DA62154B174AB2
:1020D0009A62144B0022DA60124B0122DA61114B32
:1020E000002283F830200F4B01225A610D48FEF781
:1020F000D3FA0346002B01D000F04EFA00233B60D8
:1021000001237B600023BB603B4619460548FEF770
:10211000DBFB0346002B01D000F03EFA00BF103776
:10212000BD4680BD24010020002001400100000FB9
:1021300080B58AB000AF786007F1140300221A60FE
:102140005A609A60DA601A617B681B68174A93428A
:1021500027D100233B61164B5B6C154A43F4807317
:102160005364134B5B6C03F480733B613B69002346
:10217000FB600F4B1B6B0E4A43F0010313630C4BC8
:102180001B6B03F00103FB60FB6801237B610323EE
:10219000BB610023FB6107F1140319460548FEF7F4
:1021A00097FE00BF2837BD4680BD00BF002001401C
:1021B000003802400000024080B58AB000AF07F14D
:1021C000140300221A605A609A60DA601A610023D0
:1021D0003B614B4B1B6B4A4A43F001031363484B73
:1021E0001B6B03F001033B613B690023FB60444B25
:1021F0001B6B434A43F004031363414B1B6B03F017
:102200000403FB60FB680023BB603D4B1B6B3C4A37
:1022100043F0020313633A4B1B6B03F00203BB60F2
:10222000BB6800237B60364B1B6B354A43F00803C9
:102230001363334B1B6B03F008037B607B68002246
:1022400048F28C012F48FEF7DDFF002230212E4896
:10225000FEF7D8FF002201212C48FEF7D3FF002211
:10226000C0212B48FEF7CEFF0C237B611123BB61FD
:102270000023FB6102233B6207F114031946214846
:10228000FEF726FE48F280037B610123BB61002339
:10229000FB6100233B6207F1140319461948FEF75E
:1022A00017FE30237B611123BB610023FB610223F6
:1022B0003B6207F1140319461348FEF709FE012398
:1022C0007B611123BB610023FB6102233B6207F1A9
:1022D000140319460D48FEF7FBFDC0237B61012363
:1022E000BB610023FB6100233B6207F11403194625
:1022F0000748FEF7EDFD00BF2837BD4680BD00BF93
:102300000038024000000240000802400004024081
:10231000000C024090B5B7B002AFFEF729F900F00B
:10232000D1F8FFF749FFFFF7B1FE00F03DF9AA230E
:10233000C7F8C4304FF42A43C7F8C0300023C7F8A9
:10234000BC300020FFF72CFE0120FFF7FFFDD7F87F
:10235000BC0000F02FFC7F2387F8BB300023C7F8B8
:10236000CC305448FEF7DCF9002387F8CB302DE061
:102370000023C7F8CC30002387F8CA300DE04D4861
:10238000FEF794FA0246D7F8CC301344C7F8CC30A5
:1023900097F8CA30013387F8CA3097F8CA30042B4F
:1023A000EDD9D7F8CC30444A82FB03125210DB1728
:1023B000D21A97F8CB30D2B207F1D0010B4403F810
:1023C000CC2C97F8CB30013387F8CB3097F8CB3053
:1023D0009F2BCDD9D7F8BC300093D7F8C430374AFB
:1023E00000210520FFF708FE3B791A4607F1A403F8
:1023F0003349184600F004FF07F1A402D7F8BC30B7
:102400000093D7F8C4300A210520FFF7F5FD00231B
:1024100087F8C93044E097F8C9305B00D8B297F824
:10242000C9305B00DCB297F8C93007F1D002134421
:1024300013F8CC3C9B08DBB297F8BB20D31ADAB276
:1024400097F8BB10D7F8C430009313462246FFF725
:10245000F5FD97F8C9300133DBB25B00D8B297F8CD
:10246000C9300133DBB25B00DCB297F8C93007F149
:10247000D002134413F8CC3C9B08DBB297F8BB2086
:10248000D31ADAB297F8BB10D7F8C03000931346CE
:102490002246FFF7D3FD97F8C930013387F8C930DA
:1024A00097F8C9309F2BB6D9D7F8BC0000F082FB53
:1024B00057E700BF2401002067666666243A0008DB
:1024C000403A000880B594B000AF07F120033022F5
:1024D0000021184600F08CFE07F10C0300221A6060
:1024E0005A609A60DA601A610023BB60284B1B6C4B
:1024F000274A43F080531364254B1B6C03F0805331
:10250000BB60BB6800237B60224B1B68214A43F4FD
:10251000804313601F4B1B6803F480437B607B6820
:1025200002233B620123FB6210233B630223BB6354
:102530000023FB6308233B64A8237B640223BB6462
:102540000423FB6407F120031846FEF775FE0346DB
:10255000002B01D000F020F80F23FB6002233B6129
:1025600000237B614FF4A053BB614FF4A053FB6188
:1025700007F10C0305211846FFF7A0F80346002BCE
:1025800001D000F009F800BF5037BD4680BD00BF44
:10259000003802400070004080B400AF00BFBD466C
:1025A0005DF8047B7047000080B500AF174B184AF8
:1025B0001A60164B4FF482725A60144B00229A60D4
:1025C000124B0022DA60114B00221A610F4B0022DD
:1025D0005A610E4B4FF400729A610C4B0022DA6183
:1025E0000A4B00221A62094B00225A62074B002252
:1025F0009A62064B0A22DA620448FFF7F3F90346AF
:10260000002B01D0FFF7C8FF00BF80BDCC00002029
:102610000030014080B58AB000AF786007F1140344
:1026200000221A605A609A60DA601A617B681B683F
:10263000194A93422BD100233B61184B5B6C174A1C
:1026400043F480535364154B5B6C03F480533B613C
:102650003B690023FB60114B1B6B104A43F00203E4
:1026600013630E4B1B6B03F00203FB60FB68282314
:102670007B610223BB610023FB6103233B620523D3
:102680007B6207F1140319460548FEF721FC00BFE1
:102690002837BD4680BD00BF0030014000380240F1
:1026A0000004024080B483B000AF00237B60104B75
:1026B0005B6C0F4A43F4804353640D4B5B6C03F433
:1026C00080437B607B6800233B60094B1B6C084A9E
:1026D00043F080531364064B1B6C03F080533B6044
:1026E0003B6800BF0C37BD465DF8047B704700BFF8
:1026F0000038024080B400AF00BFBD465DF8047BE7
:10270000704780B400AFFEE780B400AFFEE780B44E
:1027100000AFFEE780B400AFFEE780B400AF00BFBB
:10272000BD465DF8047B704780B400AF00BFBD4676
:102730005DF8047B704780B400AF00BFBD465DF814
:10274000047B704780B500AFFDF764FF00BF80BD1C
:1027500080B584B000AF7860114B1B68002B02D1AC
:102760000F4B104A1A600E4B1B68FB600C4B1A682B
:102770007B6813446A46934207D900F00FFD024676
:102780000C2313604FF0FF3306E0054B1A687B689B
:102790001344034A1360FB6818461037BD4680BDDA
:1027A0008C0000207001002080B400AF164BD3F8DD
:1027B0008830154A43F47003C2F88830134B1B6805
:1027C000124A43F001031360104B00229A600F4B32
:1027D0001B680E4A23F0847323F4803313600B4B81
:1027E0000B4A5A60094B1B68084A23F48023136084
:1027F000064B0022DA60044B4FF000629A6000BF83
:10280000BD465DF8047B704700ED00E000380240F3
:1028100010300024DFF834D0002103E00C4B5B586B
:10282000435004310B480C4B42189A42F6D30B4AE2
:1028300002E0002342F8043B094B9A42F9D3FFF728
:10284000B3FF00F0B1FCFFF765FD70470000022008
:10285000803C000800000020700000207000002074
:1028600070010020FEE7000080B584B000AF034691
:10287000FB710023FB7300F065F90021112000F0CB
:1028800019FB0021B12000F015FB0121012000F00F
:1028900011FB01212C2000F00DFB01212D2000F067
:1028A00009FB0021B22000F005FB0121012000F00E
:1028B00001FB01212C2000F0FDFA01212D2000F068
:1028C000F9FA0021B32000F0F5FA0121012000F00F
:1028D000F1FA01212C2000F0EDFA01212D2000F069
:1028E000E9FA0121012000F0E5FA01212C2000F095
:1028F000E1FA01212D2000F0DDFA0021B42000F0E2
:10290000D9FA0121072000F0D5FA0021C02000F0FB
:10291000D1FA0121A22000F0CDFA0121022000F01D
:10292000C9FA0121842000F0C5FA0021C12000F07D
:10293000C1FA0121C52000F0BDFA0021C22000F03B
:10294000B9FA01218A2000F0B5FA0121002000F037
:10295000B1FA0021C32000F0ADFA01218A2000F075
:10296000A9FA01212A2000F0A5FA0021C42000F0D4
:10297000A1FA01218A2000F09DFA0121EE2000F049
:1029800099FA0021C52000F095FA01210E2000F0EF
:1029900091FA0021202000F08DFA00213A2000F069
:1029A00089FA0121062000F085FA00212A2000F092
:1029B00081FA0121002000F07DFA0121002000F0C1
:1029C00079FA0121002000F075FA01217F2000F042
:1029D00071FA00212B2000F06DFA0121002000F097
:1029E00069FA0121002000F065FA0121002000F0C1
:1029F00061FA01219F2000F05DFA0021E02000F043
:102A000059FA0121022000F055FA01211C2000F0A2
:102A100051FA0121072000F04DFA0121122000F0A7
:102A200049FA0121372000F045FA0121322000F057
:102A300041FA0121292000F03DFA01212D2000F06A
:102A400039FA0121292000F035FA0121252000F072
:102A500031FA01212B2000F02DFA0121392000F05C
:102A600029FA0121002000F025FA0121012000F0BF
:102A700021FA0121032000F01DFA0121102000F0AD
:102A800019FA0021E12000F015FA0121032000F0DD
:102A900011FA01211D2000F00DFA0121072000F09C
:102AA00009FA0121062000F005FA01212E2000F08C
:102AB00001FA01212C2000F0FDF90121292000F06C
:102AC000F9F901212D2000F0F5F901212E2000F067
:102AD000F1F901212E2000F0EDF90121372000F05D
:102AE000E9F901213F2000F0E5F90121002000F083
:102AF000E1F90121002000F0DDF90121022000F0C0
:102B0000D9F90121102000F0D5F90021132000F09F
:102B1000D1F90021292000F0CDF90021362000F064
:102B2000C9F9FB79012B04D10121002000F0C2F981
:102B300003E00121A02000F0BDF9FB7B184610370F
:102B4000BD4680BD80B582B000AF0023FB710C4B49
:102B50001B68DB6800209847094B1B681B690A202B
:102B60009847074B1B68DB6801209847044B1B689C
:102B70001B690A209847FB7918460837BD4680BD77
:102B80009000002080B485B000AF78600023FB7314
:102B90007B68002B03D0064A7B68136001E00223A8
:102BA000FB73FB7B18461437BD465DF8047B70470A
:102BB0009000002080B584B000AF786000237B7364
:102BC0004FF4A043FB818023A0220021002000F0CD
:102BD000E9F905E0786800F0C9F9FB89013BFB8160
:102BE000FB89002BF6D17B7B18461037BD4680BD94
:102BF00090B589B000AF78600023FB777B6807F160
:102C00000C040FCB84E80F0007F10C03184600F00A
:102C10005FFA3B7B0133DBB23B73BB690133BB61C2
:102C2000BB691B781F2B04D9BB691B785BB2002BD7
:102C3000EADAFB7F18462437BD4690BD80B58AB0DE
:102C400000AF786000237B767A6807F1080392E88A
:102C5000030083E80300BB7A9AB23B7A9BB2D31A93
:102C60009BB2FB84FB7A9AB27B7A9BB2D31A9BB25B
:102C7000BB84B7F92430002B02DB01233B8406E040
:102C8000BB8C5B429BB2BB844FF6FF733B84B7F9AE
:102C90002630002B02DB01237B8406E0FB8C5B42A9
:102CA0009BB2FB844FF6FF737B84B7F92620B7F9FC
:102CB00024309A4204DB0023BB837B8CFB8309E036
:102CC0000023FB833B8CBB83FB8CFB82BB8CFB8494
:102CD000FB8ABB84BB8C5B009BB2BB82BA8AFB8C39
:102CE000D31A9BB27B837A8BFB8CD31A9BB27B82E9
:102CF000BA7A3B7A9A426CD17A7AFB7A9A4231D28A
:102D00003B7A797AFA68184600F0CAF9B7F91A30AE
:102D1000002B11DB3A7A7B8CDBB21344DBB23B72C3
:102D20007A7A3B8CDBB21344DBB27B727A8B7B8A80
:102D300013449BB27B8310E03A7AFB8BDBB21344E3
:102D4000DBB23B727A7ABB8BDBB21344DBB27B72B1
:102D50007A8BBB8A13449BB27B837A7AFB7A9A4242
:102D6000CED3A1E07A7AFB7A9A4240F29D803B7AF8
:102D7000797AFA68184600F093F9B7F91A30002BFF
:102D800011DB3A7A7B8CDBB21344DBB23B727A7A8A
:102D90003B8CDBB21344DBB27B727A8B7B8A1344AD
:102DA0009BB27B8310E03A7AFB8BDBB21344DBB23D
:102DB0003B727A7ABB8BDBB21344DBB27B727A8BC9
:102DC000BB8A13449BB27B837A7AFB7A9A42CED831
:102DD0006AE0BA7A3B7A9A4231D93B7A797AFA68D0
:102DE000184600F05DF9B7F91A30002B11DB3A7A7A
:102DF0007B8CDBB21344DBB23B727A7A3B8CDBB266
:102E00001344DBB27B727A8B7B8A13449BB27B8345
:102E100010E03A7AFB8BDBB21344DBB23B727A7A76
:102E2000BB8BDBB21344DBB27B727A8BBB8A13445D
:102E30009BB27B833A7ABB7A9A42CED334E0BA7A99
:102E40003B7A9A4230D23B7A797AFA68184600F097
:102E500027F9B7F91A30002B11DB3A7A7B8CDBB2F9
:102E60001344DBB23B727A7A3B8CDBB21344DBB2A5
:102E70007B727A8B7B8A13449BB27B8310E03A7A15
:102E8000FB8BDBB21344DBB23B727A7ABB8BDBB2D7
:102E90001344DBB27B727A8BBB8A13449BB27B8375
:102EA000BA7A3B7A9A42CED37B7E18462837BD4603
:102EB00080BD00BF80B584B000AF03460A46FB71F9
:102EC0001346BB710023FB73154B1B685B68002026
:102ED0009847BB79002B02D0012B06D00BE0104B9A
:102EE0001B689B680020984708E00D4B1B689B6897
:102EF0000120984702E00223FB7300BF084B1B68C8
:102F00001B68FA1D012110469847054B1B685B683A
:102F100001209847FB7B18461037BD4680BD00BF97
:102F20009000002080B584B000AF78603960002345
:102F3000FB730D4B1B685B68002098470A4B1B68AE
:102F40009B6801209847084B1B681B6839687868A4
:102F50009847054B1B685B6801209847FB7B184628
:102F60001037BD4680BD00BF9000002080B584B002
:102F700000AF78600023FB737B681B0CDBB23B73F4
:102F80007B681B0ADBB27B737B68DBB2BB7307F128
:102F90000C0303211846FFF7C5FFFB7B18461037CB
:102FA000BD4680BD90B585B000AF044608461146C9
:102FB0001A462346FB710346BB710B467B711346D1
:102FC0003B710023FB7300212A20FFF773FF0121CF
:102FD0000020FFF76FFFFB7901211846FFF76AFF1A
:102FE00001210020FFF766FFFA797B791344DBB2F9
:102FF000013BDBB201211846FFF75CFF00212B20CB
:10300000FFF758FF01210020FFF754FFBB79012192
:103010001846FFF74FFF01210020FFF74BFFBA7959
:103020003B791344DBB20133DBB201211846FFF7D1
:1030300041FF00212C20FFF73DFFFB7B1846143792
:10304000BD4690BD80B584B000AF03460A46FB7113
:103050001346BB710023FB7300212A20FFF72AFFD0
:1030600001210020FFF726FFFB7901211846FFF719
:1030700021FF00212B20FFF71DFF01210020FFF77A
:1030800019FFBB7901211846FFF714FF00212C20FE
:10309000FFF710FFFB7B18461037BD4680BD00BF11
:1030A00080B584B000AF03463A60FB710B46BB713C
:1030B0000023FB73BA79FB7911461846FFF7C2FF6C
:1030C0003868FFF753FFFB7B18461037BD4680BDBD
:1030D00080B584B000AF786000237B730023FB735E
:1030E0000023BB7300233B730023FB734CE00023DE
:1030F000BB7337E000233B737B68DB681B78A3F16D
:103100002002F97B244813469B00134403440B44DC
:103110001B783B733A7BBB7B42FA03F303F001035A
:10312000002B09D07B6818787B6859787B685B68CE
:103130001A46FFF7B5FF0CE07B689B68012B08D0AF
:103140007B6818787B6859787B689B681A46FFF71C
:10315000A7FF7B685B780133DAB27B685A70BB7B70
:103160000133BB73BB7B072BC4D97B685B78083BFF
:10317000DAB27B685A707B681B780133DAB27B68FD
:103180001A70FB7B0133FB73FB7B042BAFD97B7B7A
:1031900018461037BD4680BD5C3A0008014B1868E0
:1031A000704700BF0C00002070B50D4E0D4CA41BE5
:1031B000A4100025A54209D10B4E0C4C00F026FCB2
:1031C000A41BA4100025A54205D170BD56F82530DA
:1031D00098470135EEE756F8253098470135F2E774
:1031E000783C0008783C0008783C00087C3C0008EB
:1031F00002440346934200D1704703F8011BF9E7EC
:103200000EB400B59CB01DAB029006906FF000416B
:10321000094807910491094953F8042B0591006866
:10322000019302A900F066F8029B00221A701CB0FC
:103230005DF804EB03B070470C0000200802FFFFAC
:103240002DE9F0478E689E4282460C46904699468C
:1032500037D88A8912F4906F31D0256809696F1ABE
:103260006569022305EB450595FBF3F509F10103BB
:103270003B449D4238BF1D46530530D5294600F0DA
:103280002BFB064650B90C23CAF80030A38943F043
:103290004003A3814FF0FF30BDE8F0873A46216933
:1032A00000F0A8FAA38923F4906343F08003A3817C
:1032B000266165613E44ED1B2660A5604E464E4585
:1032C00000D94E4632464146206800F09EFAA36877
:1032D0009B1BA36023681E4426600020DCE72A466F
:1032E00000F054FB06460028E2D12169504600F068
:1032F000A5FAC8E72DE9F04F1D468B891F069DB042
:1033000080460C4616460FD50B696BB9402100F07C
:10331000E3FA2060206128B90C23C8F800304FF090
:10332000FF30C8E0402363610023099320238DF818
:10333000293030238DF82A3003954FF0010B3746A2
:103340003D4615F8013B0BB1252B3ED1B7EB060AE4
:103350000BD05346324621464046FFF771FF0130FD
:1033600000F0A480099B534409933B78002B00F0A4
:103370009D8000234FF0FF32CDE90523049307938E
:103380008DF853301A932F46052217F8011B504829
:10339000FCF71EFF049BD0B9D90644BF20228DF84C
:1033A00053201A0744BF2B228DF853202A782A2A4B
:1033B00015D0079A2F4600200A25394611F8013BFF
:1033C000303B092B4DD9B8B10FE02F46B8E7404A42
:1033D000801A0BFA00F0184304903D46D3E7039A95
:1033E000111D12680391002A01DB079204E052428A
:1033F00043F00203079204933B782E2B0CD17B7889
:103400002A2B33D1039B1A1D1B680392002BB8BFD4
:103410004FF0FF33023705932E4D397803222846AB
:10342000FCF7D6FE38B14023401B03FA00F0049BA2
:10343000034301370493397827488DF82810062272
:103440007E1CFCF7C5FE002838D0244B13BB039B21
:10345000073323F0070308330393099B4B44099375
:103460006DE705FB023201200F46A6E70023013776
:10347000059319460A25384610F8012B303A092AD7
:1034800003D9002BC8D00591C6E705FB0121012314
:103490000746F0E703AB00932246114B04A94046D0
:1034A000AFF30080B0F1FF3F8146D6D1A3895B0620
:1034B0003FF535AF09981DB0BDE8F08F03AB009321
:1034C0002246074B04A9404600F082F8EAE700BF15
:1034D0003C3C0008423C0008463C0008000000005C
:1034E000413200082DE9F04791461F468A680B6972
:1034F000DDF820809342B8BF1346C9F8003091F838
:10350000432006460C4612B10133C9F80030236847
:10351000990642BFD9F800300233C9F80030256857
:1035200015F0060507D104F1190AE368D9F800205F
:103530009B1AAB4228DC94F843302268003318BF52
:10354000012392062DD404F1430239463046C04788
:10355000013020D02368E568D9F8002003F0060385
:10356000042B08BFAD1AA36822690CBF25EAE575D4
:1035700000259342C4BF9B1AED184FF000091A347E
:103580004D451AD1002008E0012352463946304605
:10359000C047013003D14FF0FF30BDE8F08701355F
:1035A000C3E7E1185A1C302081F84300224494F804
:1035B000451082F843100233C5E7012322463946FD
:1035C0003046C0470130E6D009F10109D8E70000D4
:1035D0002DE9F04301F1430C0C46097E85B06E29BC
:1035E0001746064698460C9A00F0B38022D8632905
:1035F00036D00AD8002900F0B980582900F083801D
:1036000004F1420584F8421032E0642901D06929AE
:10361000F6D120681368050603F104012AD51B685A
:103620001160002B03DA2D225B4284F843206F489F
:103630000A2239E0732900F09D8008D86F2920D034
:103640007029DDD1236843F02003236003E075294E
:1036500017D07829D4D1782384F84530644855E0D0
:103660001368191D1B68116004F1420584F842308B
:1036700001238CE01B68116010F0400F18BF1BB2D3
:10368000CFE713682568181D1060280601D51B6850
:1036900002E06806FBD51B8854486F2914BF0A2234
:1036A0000822002184F843106568A560002DC0F24F
:1036B0009580216821F004012160002B3DD1002D6F
:1036C00040F08E806546082A0BD12368DB0708D5B9
:1036D000236962689A42DEBF302305F8013C05F198
:1036E000FF35ACEB05032361CDF800803B4603AA10
:1036F00021463046FFF7F6FE01304DD14FF0FF3046
:1037000005B0BDE8F083394884F845101368216896
:103710001D1D1B6815600A060BD5CA0744BF41F082
:10372000200121601BB9226822F0200222601022B1
:10373000B7E74D0648BF9BB2EFE76546B3FBF2F132
:1037400002FB1133C35C05F8013D0B460029F5D19E
:10375000B9E7136825686169181D106028061B68A1
:1037600001D5196002E06A06FBD5198000232361A8
:103770006546B9E71368191D11601D68626800216C
:103780002846FCF725FD08B1401B60606368236193
:10379000002384F84330A7E723692A463946304698
:1037A000C0470130AAD023689B0713D4E068039B6D
:1037B0009842B8BF1846A3E701234A463946304627
:1037C000C04701309AD00135E368039A9B1AAB4297
:1037D000F2DCEBE7002504F11909F5E7002BACD189
:1037E000037884F8423004F142056CE74D3C000850
:1037F0005E3C000810B5431E0A44914200D110BD42
:1038000011F8014B03F8014FF7E7884210B501EBBF
:10381000020307D8421E99420AD011F8014B02F860
:10382000014FF8E78342F5D98118D21AD34200D16B
:1038300010BD13F8014D01F8014DF7E738B5054605
:10384000002945D051F8043C0C1F002BB8BFE418E8
:1038500000F0D2F81F4A1368104633B96360146051
:103860002846BDE8384000F0C8B8A3420CD921680A
:103870006218934204BF1A685B68636004BF521801
:1038800022600460ECE713465A680AB1A242FAD9F2
:1038900019685818A0420BD1206801445818824278
:1038A0001960DDD1106852685A6001441960D7E789
:1038B00002D90C232B60D3E7206821188A4204BF69
:1038C00011685268626004BF091821605C60C7E734
:1038D00038BD00BF9400002070B5CD1C25F0030555
:1038E00008350C2D38BF0C25002D064601DBA942FA
:1038F00003D90C233360002070BD00F07DF8214A0D
:103900001468214691B9204C23681BB9304600F059
:1039100063F820602946304600F05EF8431C24D14D
:103920000C233360304600F068F8E4E70B685B1B5B
:1039300018D40B2B0FD90B60CD50CC18304600F0AB
:103940005CF804F10B00231D20F00700C31AD3D04C
:103950005A42E250D0E78C424B6816BF6360136056
:103960000C46EBE70C464968CCE7C41C24F0030482
:10397000A04205D0211A304600F02EF80130CFD0F9
:103980002560DBE79400002098000020F8B507468A
:1039900014460E4621B91146BDE8F840FFF79CBF1A
:1039A00022B9FFF74BFF25462846F8BD00F026F860
:1039B000A0420FD221463846FFF78EFF0546002869
:1039C000F2D031462246FFF715FF31463846FFF761
:1039D00035FFE9E73546E7E738B5064C00230546ED
:1039E00008462360FEF7B4FE431C02D1236803B1EE
:1039F0002B6038BD6C0100207047704751F8043CC3
:103A0000181F002BBCBF0B58C0187047F8B500BF7B
:103A1000F8BC08BC9E467047F8B500BFF8BC08BCAF
:043A20009E46704707
:103A2400506F77657220456C656374726F6E69635D
:103A34002056756D6574726F2000000053616D70BF
:103A44006C653A20256400000000000000000000BE
:103A54000102030406070809000000000000005FDB
:103A640000000007000700147F147F14242A7F2A13
:103A740012231308646236495522500005030000DE
:103A8400001C2241000041221C0014083E081408B6
:103A9400083E0808005030000008080808080060C4
:103AA40060000020100804023E5149453E00427F58
:103AB400400042615149462141454B311814127F5F
:103AC4001027454545393C4A4949300171090503E8
:103AD4003649494936064949291E00363600000050
:103AE4005636000008142241001414141414004122
:103AF4002214080201510906324979413E7E11110E
:103B0400117E7F494949363E414141227F4141224C
:103B14001C7F494949417F090909013E4149497AC4
:103B24007F0808087F00417F41002040413F017F1A
:103B3400081422417F404040407F020C027F7F04F2
:103B440008107F3E4141413E7F090909063E41512B
:103B5400215E7F09192946464949493101017F01FE
:103B6400013F4040403F1F2040201F3F4038403F1E
:103B7400631408146307087008076151494543003A
:103B84007F41410002040810200041417F000402EB
:103B9400010204404040404000010204002054540B
:103BA40054787F4844443838444444203844444892
:103BB4007F3854545418087E0901020C5252523E64
:103BC4007F0804047800447D40002040443D007F89
:103BD4001028440000417F40007C041804787C08CD
:103BE40004047838444444387C1414140808141425
:103BF400187C7C080404084854545420043F44406E
:103C0400203C4040207C1C2040201C3C4030403C58
:103C140044281028440C5050503C4464544C4400F4
:103C24000836410000007F000000413608001008FB
:103C34000810087846414678232D302B2000686C04
:103C44004C006566674546470030313233343536BB
:103C540037383941424344454600303132333435F4
:0C3C640036373839616263646566000021
:083C700030C6FF7F01000000D7
:043C7800B50100088A
:043C7C0091010008AA
:103C800010000000010000000024F40010000020DB
:103C90000000000000000000000000000000000024
:103CA0000000000000000000000000000000000014
:103CB0000000000000000000000000000000000004
:103CC00000000000000000000000000000000000F4
:103CD00000000000000000000000000000000000E4
:103CE00000000000000000000000000000000000D4
:0400000508002815B2
:00000001FF
