:020000040800F2
:10000000000002206D150008A5140008B3140008B4
:10001000B9140008BF140008C5140008000000004F
:10002000000000000000000000000000CB140008E9
:10003000D914000800000000E7140008F5140008B7
:10004000BD150008BD150008BD150008BD15000848
:10005000BD150008BD150008BD150008BD15000838
:10006000BD150008BD150008BD150008BD15000828
:10007000BD150008BD150008BD150008BD15000818
:10008000BD150008BD150008BD150008BD15000808
:10009000BD150008BD150008BD150008BD150008F8
:1000A000BD150008BD150008BD150008BD150008E8
:1000B000BD150008BD150008BD150008BD150008D8
:1000C000BD150008BD150008BD150008BD150008C8
:1000D000BD150008BD150008BD150008BD150008B8
:1000E000BD150008BD150008BD150008BD150008A8
:1000F000BD150008BD150008BD150008BD15000898
:10010000BD150008BD150008BD150008BD15000887
:10011000BD150008BD150008BD150008BD15000877
:10012000BD150008BD150008BD150008BD15000867
:10013000BD150008BD150008BD150008BD15000857
:10014000BD150008BD150008BD150008BD15000847
:10015000BD150008BD150008BD150008BD15000837
:10016000BD150008BD150008BD150008BD15000827
:10017000BD150008BD150008BD15000800000000F1
:08018000BD150008BD150008C3
:1001880010B5054C237833B9044B13B10448AFF3C9
:1001980000800123237010BD0C0000200000000027
:1001A8001816000808B5034B1BB103490348AFF301
:1001B800008008BD0000000010000020181600088C
:1001C80053B94AB9002908BF00281CBF4FF0FF31B6
:1001D8004FF0FF3000F072B9ADF1080C6DE904CEB4
:1001E80000F006F8DDF804E0DDE9022304B070470A
:1001F8002DE9F047089E04468846002B4BD18A42D9
:10020800154667D9B2FA82F24AB1C2F1200701FA5B
:1002180002F320FA07F7954047EA030894404FEAAB
:10022800154E230CB8FBFEF71FFA85FC0EFB17884A
:1002380043EA084307FB0CF1994209D9EB1807F187
:10024800FF3080F01B81994240F21881023F2B4415
:100258005B1AA4B2B3FBFEF00EFB103344EA03446E
:1002680000FB0CFCA44509D92C1900F1FF3380F0E0
:100278000781A44540F2048102382C4440EA074033
:10028800A4EB0C0400271EB1D4400023C6E90043A8
:100298003946BDE8F0878B4209D9002E00F0EB8083
:1002A8000027C6E9000138463946BDE8F087B3FAA9
:1002B80083F7002F47D18B4202D3824200F2FA80A3
:1002C800841A61EB030301209846002EE0D0C6E9AA
:1002D8000048DDE702B9FFDEB2FA82F2002A40F0F8
:1002E8008F80491B4FEA154E1FFA85F80127B1FB8D
:1002F800FEFC230C0EFB1C1143EA014308FB0CF126
:10030800994207D9EB180CF1FF3002D2994200F25A
:10031800CD808446591AA3B2B1FBFEF00EFB10142F
:1003280043EA044408FB00F8A04507D92C1900F15A
:10033800FF3302D2A04500F2B6801846A4EB0804A9
:1003480040EA0C409FE7C7F1200CBB4022FA0CFEA4
:100358004EEA030E01FA07F420FA0CF521FA0CF321
:100368004FEA1E482543B3FBF8F92C0C08FB193358
:100378001FFA8EFA44EA034309FB0AF49C4202FA84
:1003880007F200FA07F10BD91EEB030309F1FF305E
:1003980080F087809C4240F28480A9F1020973446E
:1003A8001B1BADB2B3FBF8F008FB103345EA03445E
:1003B80000FB0AFAA24508D91EEB040400F1FF333A
:1003C8006BD2A24569D90238744440EA0940A0FBBF
:1003D8000289A4EB0A044C45C2464B4654D351D07B
:1003E800002E69D0B1EB0A0564EB030404FA0CFC97
:1003F800FD40FC404CEA0505C6E90054002747E7E4
:10040800C2F1200320FA03F7954001FA02F021FA1D
:1004180003F34FEA154E3843010CB3FBFEF71FFAFE
:1004280085F80EFB173341EA034107FB08F38B42BB
:1004380004FA02F407D9691807F1FF3C2FD28B425E
:100448002DD9023F2944CB1A81B2B3FBFEF00EFB33
:10045800103341EA034100FB08F38B4207D96918BE
:1004680000F1FF3C17D28B4215D902382944C91A2A
:1004780040EA07473BE73746304609E70746E7E6DD
:100488001846FBE64145ABD2B8EB020A69EB0E020F
:1004980001381346A4E76046E9E7184695E767463A
:1004A800D1E781467CE702382C4447E7ACF1020CDF
:1004B8002B442FE7384608E73746E9E6704700BF80
:1004C80080B500AF0E4B1B680D4A43F400731360F0
:1004D8000B4B1B680A4A43F480631360084B1B6884
:1004E800074A43F480731360032000F00DF90020DD
:1004F80000F008F800F0AAFF0023184680BD00BFEE
:10050800003C024080B582B000AF7860124B1A6898
:10051800124B1B7819464FF47A73B3FBF1F3B2FB15
:10052800F3F3184600F017F90346002B01D0012316
:100538000EE07B680F2B0AD8002279684FF0FF3055
:1005480000F0EDF8064A7B681360002300E0012301
:1005580018460837BD4680BD08000020040000206A
:100568000000002080B400AF064B1B781A46064BEB
:100578001B681344044A136000BFBD465DF8047B42
:10058800704700BF040000202C00002080B400AF9A
:10059800034B1B681846BD465DF8047B704700BFD7
:1005A8002C00002080B485B000AF78607B6803F031
:1005B8000703FB600C4BDB68BB60BA684FF6FF03B0
:1005C8001340BB60FB681A02BB68134343F0BF6368
:1005D80043F40033BB60044ABB68D36000BF1437E0
:1005E800BD465DF8047B704700ED00E080B400AFC5
:1005F800044BDB681B0A03F007031846BD465DF889
:10060800047B704700ED00E080B483B000AF034680
:100618003960FB7197F90730002B0ADB3B68DAB2C7
:100628000C4997F907301201D2B20B4483F8002322
:100638000AE03B68DAB20849FB7903F00F03043B90
:100648001201D2B20B441A7600BF0C37BD465DF8D2
:10065800047B704700E100E000ED00E080B489B061
:1006680000AFF860B9607A60FB6803F00703FB61CC
:10067800FB69C3F10703042B28BF0423BB61FB6993
:100688000433062B02D9FB69033B00E000237B619E
:100698004FF0FF32BB6902FA03F3DA43BB681A4032
:1006A8007B699A404FF0FF317B6901FA03F3D94324
:1006B8007B680B40134318462437BD465DF8047B1E
:1006C8007047000080B582B000AF78607B68013B5E
:1006D800B3F1807F01D301230FE00A4A7B68013B15
:1006E80053600F214FF0FF30FFF78EFF054B0022BC
:1006F8009A60044B07221A60002318460837BD4643
:1007080080BD00BF10E000E080B582B000AF786027
:100718007868FFF747FF00BF0837BD4680BD80B542
:1007280086B000AF0346B9607A60FB7300237B6133
:10073800FFF75CFF78617A68B9687869FFF78EFF20
:10074800024697F90F3011461846FFF75DFF00BFC4
:100758001837BD4680BD80B582B000AF7860786834
:10076800FFF7B0FF034618460837BD4680BD0000B6
:1007780080B489B000AF7860396000237B610023C2
:100788003B610023BB610023FB616BE10122FB6934
:1007980002FA03F37B613B681B687A6913403B618B
:1007A8003A697B699A4240F05A813B685B68022B40
:1007B80003D03B685B68122B23D1FB69DA087B689E
:1007C800083253F82230BB61FB6903F007039B0032
:1007D8000F2202FA03F3DB43BA691340BB613B689B
:1007E8001A69FB6903F007039B0002FA03F3BA696D
:1007F8001343BB61FB69DA087B680832B96943F8BF
:1008080022107B681B68BB61FB695B00032202FA4C
:1008180003F3DB43BA691340BB613B685B6803F0D1
:100828000302FB695B0002FA03F3BA691343BB6175
:100838007B68BA691A603B685B68012B0BD03B6820
:100848005B68022B07D03B685B68112B03D03B68C1
:100858005B68122B30D17B689B68BB61FB695B00CE
:10086800032202FA03F3DB43BA691340BB613B6816
:10087800DA68FB695B0002FA03F3BA691343BB61E8
:100888007B68BA699A607B685B68BB610122FB6917
:1008980002FA03F3DB43BA691340BB613B685B6848
:1008A8001B0903F00102FB6902FA03F3BA69134357
:1008B800BB617B68BA695A607B68DB68BB61FB69AE
:1008C8005B00032202FA03F3DB43BA691340BB61FE
:1008D8003B689A68FB695B0002FA03F3BA69134341
:1008E800BB617B68BA69DA603B685B6803F0805378
:1008F800002B00F0B4800023FB605F4B5B6C5E4A0A
:1009080043F4804353645C4B5B6C03F48043FB60AB
:10091800FB685A4AFB699B08023352F82330BB61D3
:10092800FB6903F003039B000F2202FA03F3DB4386
:10093800BA691340BB617B68514A93422BD07B68EC
:10094800504A934225D07B684F4A93421FD07B6818
:100958004E4A934219D07B684D4A934213D07B6824
:100968004C4A93420DD07B684B4A934207D07B6830
:100978004A4A934201D107230EE008230CE00623DC
:100988000AE0052308E0042306E0032304E0022329
:1009980002E0012300E00023FA6902F0030292005A
:1009A8009340BA691343BB613449FB699B0802331E
:1009B800BA6941F823203A4B1B68BB613B69DB43AA
:1009C800BA691340BB613B685B6803F48033002B52
:1009D80003D0BA693B691343BB61314ABB691360F1
:1009E8002F4B5B68BB613B69DB43BA691340BB6152
:1009F8003B685B6803F40033002B03D0BA693B699A
:100A08001343BB61264ABB695360254B9B68BB6196
:100A18003B69DB43BA691340BB613B685B6803F41D
:100A28008013002B03D0BA693B691343BB611C4A8E
:100A3800BB6993601A4BDB68BB613B69DB43BA69EE
:100A48001340BB613B685B6803F40013002B03D0C1
:100A5800BA693B691343BB61114ABB69D360FB693F
:100A68000133FB61FB690F2B7FF690AE00BF243783
:100A7800BD465DF8047B70470038024000380140ED
:100A8800000002400004024000080240000C02403E
:100A9800001002400014024000180240001C0240EE
:100AA800003C014080B483B000AF78600B467B8087
:100AB80013467B707B78002B03D07A887B689A6119
:100AC80003E07B881A047B689A6100BF0C37BD4637
:100AD8005DF8047B704780B483B000AF78600B4644
:100AE8007B807B685A697B881A407B889A4204D14C
:100AF8007B881A047B689A6102E07A887B689A612D
:100B080000BF0C37BD465DF8047B704780B586B0E2
:100B180000AF78607B68002B01D101232DE27B6850
:100B28001B6803F00103002B75D0A34B9B6803F0EF
:100B38000C03042B0CD0A04B9B6803F00C03082B70
:100B480012D19D4B5B6803F48003B3F5800F0BD182
:100B5800994B1B6803F40033002B5BD07B685B6800
:100B6800002B57D1012308E27B685B68B3F5803F0F
:100B780006D1914B1B68904A43F4803313601DE003
:100B88007B685B68B3F5A02F0CD18B4B1B688A4A36
:100B980043F480231360884B1B68874A43F48033EF
:100BA80013600BE0844B1B68834A23F48033136083
:100BB800814B1B68804A23F4802313607B685B6841
:100BC800002B13D0FFF7E2FC386108E0FFF7DEFCEA
:100BD80002463B69D31A642B01D90323CDE1764B36
:100BE8001B6803F40033002BF0D014E0FFF7CEFCB1
:100BF800386108E0FFF7CAFC02463B69D31A642B48
:100C080001D90323B9E16C4B1B6803F40033002BB3
:100C1800F0D100E000BF7B681B6803F00203002BE3
:100C280063D0654B9B6803F00C03002B0BD0624B21
:100C38009B6803F00C03082B1CD15F4B5B6803F423
:100C48008003002B16D15C4B1B6803F00203002BBA
:100C580005D07B68DB68012B01D001238DE1564B61
:100C68001B6823F0F8027B681B69DB0052491343B9
:100C78000B603AE07B68DB68002B20D04F4B0122E9
:100C88001A60FFF783FC386108E0FFF77FFC024633
:100C98003B69D31A022B01D903236EE1464B1B682B
:100CA80003F00203002BF0D0434B1B6823F0F8023B
:100CB8007B681B69DB00404913430B6015E03F4B21
:100CC80000221A60FFF762FC386108E0FFF75EFC5B
:100CD80002463B69D31A022B01D903234DE1364B57
:100CE8001B6803F00203002BF0D17B681B6803F03C
:100CF8000803002B30D07B685B69002B16D0304B83
:100D080001221A60FFF742FC386108E0FFF73EFC59
:100D180002463B69D31A022B01D903232DE1264B46
:100D28005B6F03F00203002BF0D015E0244B002288
:100D38001A60FFF72BFC386108E0FFF727FC024632
:100D48003B69D31A022B01D9032316E11A4B5B6FB7
:100D580003F00203002BF0D17B681B6803F0040347
:100D6800002B00F0A0800023FB75134B1B6C03F0D5
:100D78008053002B0FD10023FB600F4B1B6C0E4AD6
:100D880043F0805313640C4B1B6C03F08053FB60DF
:100D9800FB680123FB750B4B1B6803F48073002B66
:100DA80021D1084B1B68074A43F480731360FFF78F
:100DB800EDFB386111E000BF0038024000004742F7
:100DC800800E474200700040FFF7E0FB02463B6997
:100DD800D31A022B01D90323CFE06A4B1B6803F413
:100DE8008073002BF0D07B689B68012B06D1664B83
:100DF8001B6F654A43F0010313671CE07B689B681F
:100E0800052B0CD1604B1B6F5F4A43F0040313673B
:100E18005D4B1B6F5C4A43F0010313670BE05A4BB1
:100E28001B6F594A23F001031367574B1B6F564A30
:100E380023F0040313677B689B68002B15D0FFF72A
:100E4800A5FB38610AE0FFF7A1FB02463B69D31A0C
:100E580041F28832934201D903238EE04A4B1B6F3B
:100E680003F00203002BEED014E0FFF78FFB38618C
:100E78000AE0FFF78BFB02463B69D31A41F288323E
:100E8800934201D9032378E03F4B1B6F03F0020321
:100E9800002BEED1FB7D012B05D13B4B1B6C3A4A55
:100EA80023F0805313647B689B69002B64D0364B16
:100EB8009B6803F00C03082B5CD07B689B69022BB2
:100EC80041D1324B00221A60FFF760FB386108E01D
:100ED800FFF75CFB02463B69D31A022B01D90323B7
:100EE8004BE0294B1B6803F00073002BF0D17B68A3
:100EF800DA697B681B6A1A437B685B6A9B011A4341
:100F08007B689B6A5B08013B1B041A437B68DB6AAE
:100F18001B061D4913434B601C4B01221A60FFF747
:100F280035FB386108E0FFF731FB02463B69D31A0D
:100F3800022B01D9032320E0134B1B6803F0007335
:100F4800002BF0D018E0114B00221A60FFF71EFBAF
:100F5800386108E0FFF71AFB02463B69D31A022BF7
:100F680001D9032309E0084B1B6803F00073002B29
:100F7800F0D101E0012300E0002318461837BD46F0
:100F880080BD00BF0070004000380240600047424A
:100F980080B584B000AF786039607B68002B01D1E0
:100FA8000123CAE0674B1B6803F00F033A689A42B3
:100FB8000CD9644B3A68D2B21A70624B1B6803F0C2
:100FC8000F033A689A4201D00123B6E07B681B6898
:100FD80003F00203002B20D07B681B6803F0040396
:100FE800002B05D0584B9B68574A43F4E053936055
:100FF8007B681B6803F00803002B05D0524B9B68E5
:10100800514A43F4604393604F4B9B6823F0F002CE
:101018007B689B684C4913438B607B681B6803F0B3
:101028000103002B44D07B685B68012B07D1464B3A
:101038001B6803F40033002B19D101237DE07B6882
:101048005B68022B03D07B685B68032B07D13E4BA0
:101058001B6803F00073002B09D101236DE03A4BA4
:101068001B6803F00203002B01D1012365E0364B16
:101078009B6823F003027B685B68334913438B60EA
:10108800FFF784FAF8600AE0FFF780FA0246FB6887
:10109800D31A41F28832934201D903234DE02A4BF7
:1010A8009B6803F00C027B685B689B009A42EBD15B
:1010B800244B1B6803F00F033A689A420CD2214B69
:1010C8003A68D2B21A701F4B1B6803F00F033A68D4
:1010D8009A4201D0012330E07B681B6803F00403C7
:1010E800002B08D0184B9B6823F4E0527B68DB6820
:1010F800154913438B607B681B6803F00803002BBA
:1011080009D0114B9B6823F460427B681B69DB00A4
:101118000D4913438B6000F01DF801460A4B9B688C
:101128001B0903F00F03094AD35C21FA03F3084AA9
:1011380013600020FFF7E6F9002318461037BD4674
:1011480080BD00BF003C0240003802403016000855
:1011580008000020F0B585B000AF00237B600023B5
:10116800FB6000233B600023BB60504B9B6803F08F
:101178000C03042B07D0082B08D0002B40F08D80DF
:101188004B4BBB608CE04B4BBB6089E0474B5B68CB
:1011980003F03F037B60454B5B6803F48003002B3F
:1011A80023D0424B5B689B094FF0000440F2FF11CB
:1011B8004FF0000203EA010504EA02063D4A02FB79
:1011C80006F1002202FB05F20A443A49A5FB010197
:1011D800531819467B684FF000041A462346FEF759
:1011E800EFFF03460C46FB6049E0304B5B689B0908
:1011F8004FF0000440F2FF114FF0000203EA01052E
:1012080004EA0206294632464FF000034FF0000474
:10121800540144EAD1644B0119462246491B62EB4A
:1012280006024FF000034FF00004940144EA916471
:101238008B015B1A64EB02044FF000014FF00002CF
:10124800E20042EA5372D9000B4614465B1944EB9C
:1012580006044FF000014FF00002A20242EA935246
:1012680099020B461446184621467B684FF0000445
:101278001A462346FEF7A4FF03460C46FB600B4BB9
:101288005B681B0C03F0030301335B003B60FA68E7
:101298003B68B2FBF3F3BB6002E0054BBB6000BFE9
:1012A800BB6818461437BD46F0BD00BF0038024081
:1012B8000024F40040787D0180B588B000AF07F1C4
:1012C8000C0300221A605A609A60DA601A610023DF
:1012D800BB60184B1B6B174A43F001031363154B94
:1012E8001B6B03F00103BB60BB6800237B60114BE1
:1012F8001B6B104A43F0100313630E4B1B6B03F078
:1013080010037B607B68012201210B48FFF7CAFBB1
:101318000123FB6011233B6100237B610223BB6136
:1013280007F10C0319460448FFF722FA00BF2037DB
:10133800BD4680BD003802400010024080B500AFB5
:10134800FFF7BEF800F01CF8FFF7B6FF094B0022C4
:101358001A6008E001210848FFF7BDFB054B1B6830
:101368000133044A1360034B1B68044A9342F1DDBE
:10137800ECE700BF28000020001002403F420F00A9
:1013880080B594B000AF07F1200330220021184641
:1013980000F036F907F10C0300221A605A609A60CF
:1013A800DA601A610023BB60224B1B6C214A43F0B0
:1013B800805313641F4B1B6C03F08053BB60BB68E6
:1013C80000237B601C4B1B681B4A43F4804313605B
:1013D800194B1B6803F480437B607B6802233B62E4
:1013E8000123FB6210233B630023BB6307F1200347
:1013F8001846FFF78BFB0346002B01D000F01EF8C0
:101408000F23FB6000233B6100237B610023BB614A
:101418000023FB6107F10C0300211846FFF7B8FD14
:101428000346002B01D000F009F800BF5037BD4635
:1014380080BD00BF003802400070004080B400AF9B
:1014480000BFBD465DF8047B7047000080B483B0E0
:1014580000AF00237B60104B5B6C0F4A43F4804362
:1014680053640D4B5B6C03F480437B607B68002303
:101478003B60094B1B6C084A43F080531364064BCE
:101488001B6C03F080533B603B6800BF0C37BD46C4
:101498005DF8047B704700BF0038024080B400AF9D
:1014A80000BFBD465DF8047B704780B400AFFEE71F
:1014B80080B400AFFEE780B400AFFEE780B400AFB1
:1014C800FEE780B400AF00BFBD465DF8047B7047FF
:1014D80080B400AF00BFBD465DF8047B704780B4A0
:1014E80000AF00BFBD465DF8047B704780B500AF14
:1014F800FFF738F800BF80BD80B400AF164BD3F8B3
:101508008830154A43F47003C2F88830134B1B68BF
:10151800124A43F001031360104B00229A600F4BEC
:101528001B680E4A23F0847323F4803313600B4B3B
:101538000B4A5A60094B1B68084A23F4802313603E
:10154800064B0022DA60044B4FF000629A6000BF3D
:10155800BD465DF8047B704700ED00E000380240AE
:1015680010300024DFF834D0002103E00C4B5B5826
:10157800435004310B480C4B42189A42F6D30B4A9D
:1015880002E0002342F8043B094B9A42F9D3FFF7E3
:10159800B3FF00F011F8FFF7D1FE704700000220FA
:1015A80050160008000000200C0000200C0000204D
:1015B80030000020FEE7000070B50D4E0D4CA41B56
:1015C800A4100025A54209D10B4E0C4C00F020F8C0
:1015D800A41BA4100025A54205D170BD56F82530DE
:1015E80098470135EEE756F8253098470135F2E778
:1015F8004816000848160008481600084C16000847
:1016080002440346934200D1704703F8011BF9E7EF
:10161800F8B500BFF8BC08BC9E467047F8B500BFD7
:08162800F8BC08BC9E467047A7
:101630000000000000000000010203040607080982
:08164000B8EBFF7F0100000080
:04164800AD010008E8
:04164C008901000808
:0C16500010000000010000000024F40065
:040000050800156D6D
:00000001FF
